{
  "_format": "hh-sol-artifact-1",
  "contractName": "Spatters",
  "sourceName": "contracts/Spatters.sol",
  "abi": [
    {
      "inputs": [
        {
          "internalType": "address[]",
          "name": "spattersAddresses",
          "type": "address[]"
        },
        {
          "internalType": "address",
          "name": "p5jsAddress",
          "type": "address"
        }
      ],
      "stateMutability": "nonpayable",
      "type": "constructor"
    },
    {
      "inputs": [
        {
          "internalType": "address",
          "name": "sender",
          "type": "address"
        },
        {
          "internalType": "uint256",
          "name": "tokenId",
          "type": "uint256"
        },
        {
          "internalType": "address",
          "name": "owner",
          "type": "address"
        }
      ],
      "name": "ERC721IncorrectOwner",
      "type": "error"
    },
    {
      "inputs": [
        {
          "internalType": "address",
          "name": "operator",
          "type": "address"
        },
        {
          "internalType": "uint256",
          "name": "tokenId",
          "type": "uint256"
        }
      ],
      "name": "ERC721InsufficientApproval",
      "type": "error"
    },
    {
      "inputs": [
        {
          "internalType": "address",
          "name": "approver",
          "type": "address"
        }
      ],
      "name": "ERC721InvalidApprover",
      "type": "error"
    },
    {
      "inputs": [
        {
          "internalType": "address",
          "name": "operator",
          "type": "address"
        }
      ],
      "name": "ERC721InvalidOperator",
      "type": "error"
    },
    {
      "inputs": [
        {
          "internalType": "address",
          "name": "owner",
          "type": "address"
        }
      ],
      "name": "ERC721InvalidOwner",
      "type": "error"
    },
    {
      "inputs": [
        {
          "internalType": "address",
          "name": "receiver",
          "type": "address"
        }
      ],
      "name": "ERC721InvalidReceiver",
      "type": "error"
    },
    {
      "inputs": [
        {
          "internalType": "address",
          "name": "sender",
          "type": "address"
        }
      ],
      "name": "ERC721InvalidSender",
      "type": "error"
    },
    {
      "inputs": [
        {
          "internalType": "uint256",
          "name": "tokenId",
          "type": "uint256"
        }
      ],
      "name": "ERC721NonexistentToken",
      "type": "error"
    },
    {
      "inputs": [
        {
          "internalType": "address",
          "name": "owner",
          "type": "address"
        }
      ],
      "name": "OwnableInvalidOwner",
      "type": "error"
    },
    {
      "inputs": [
        {
          "internalType": "address",
          "name": "account",
          "type": "address"
        }
      ],
      "name": "OwnableUnauthorizedAccount",
      "type": "error"
    },
    {
      "inputs": [],
      "name": "ReentrancyGuardReentrantCall",
      "type": "error"
    },
    {
      "anonymous": false,
      "inputs": [
        {
          "indexed": true,
          "internalType": "address",
          "name": "owner",
          "type": "address"
        },
        {
          "indexed": true,
          "internalType": "address",
          "name": "approved",
          "type": "address"
        },
        {
          "indexed": true,
          "internalType": "uint256",
          "name": "tokenId",
          "type": "uint256"
        }
      ],
      "name": "Approval",
      "type": "event"
    },
    {
      "anonymous": false,
      "inputs": [
        {
          "indexed": true,
          "internalType": "address",
          "name": "owner",
          "type": "address"
        },
        {
          "indexed": true,
          "internalType": "address",
          "name": "operator",
          "type": "address"
        },
        {
          "indexed": false,
          "internalType": "bool",
          "name": "approved",
          "type": "bool"
        }
      ],
      "name": "ApprovalForAll",
      "type": "event"
    },
    {
      "anonymous": false,
      "inputs": [
        {
          "indexed": false,
          "internalType": "string",
          "name": "newURI",
          "type": "string"
        }
      ],
      "name": "BaseURIUpdatedByCommunity",
      "type": "event"
    },
    {
      "anonymous": false,
      "inputs": [
        {
          "indexed": false,
          "internalType": "string",
          "name": "newURI",
          "type": "string"
        }
      ],
      "name": "BaseURIUpdatedByOwner",
      "type": "event"
    },
    {
      "anonymous": false,
      "inputs": [
        {
          "indexed": true,
          "internalType": "address",
          "name": "oldGenerator",
          "type": "address"
        },
        {
          "indexed": true,
          "internalType": "address",
          "name": "newGenerator",
          "type": "address"
        }
      ],
      "name": "GeneratorContractUpdated",
      "type": "event"
    },
    {
      "anonymous": false,
      "inputs": [
        {
          "indexed": true,
          "internalType": "address",
          "name": "requester",
          "type": "address"
        },
        {
          "indexed": false,
          "internalType": "bytes32[3]",
          "name": "seeds",
          "type": "bytes32[3]"
        },
        {
          "indexed": false,
          "internalType": "uint256",
          "name": "timestamp",
          "type": "uint256"
        },
        {
          "indexed": false,
          "internalType": "bool",
          "name": "isOwnerMint",
          "type": "bool"
        }
      ],
      "name": "MintRequested",
      "type": "event"
    },
    {
      "anonymous": false,
      "inputs": [
        {
          "indexed": true,
          "internalType": "uint256",
          "name": "tokenId",
          "type": "uint256"
        },
        {
          "indexed": true,
          "internalType": "address",
          "name": "minter",
          "type": "address"
        },
        {
          "indexed": false,
          "internalType": "bytes32",
          "name": "seed",
          "type": "bytes32"
        },
        {
          "indexed": false,
          "internalType": "bool",
          "name": "hasCustomPalette",
          "type": "bool"
        },
        {
          "indexed": false,
          "internalType": "uint256",
          "name": "timestamp",
          "type": "uint256"
        }
      ],
      "name": "Minted",
      "type": "event"
    },
    {
      "anonymous": false,
      "inputs": [
        {
          "indexed": true,
          "internalType": "uint256",
          "name": "tokenId",
          "type": "uint256"
        },
        {
          "indexed": true,
          "internalType": "uint256",
          "name": "mutationIndex",
          "type": "uint256"
        },
        {
          "indexed": false,
          "internalType": "string",
          "name": "mutationType",
          "type": "string"
        },
        {
          "indexed": false,
          "internalType": "bytes32",
          "name": "seed",
          "type": "bytes32"
        },
        {
          "indexed": false,
          "internalType": "uint256",
          "name": "timestamp",
          "type": "uint256"
        }
      ],
      "name": "Mutated",
      "type": "event"
    },
    {
      "anonymous": false,
      "inputs": [
        {
          "indexed": true,
          "internalType": "address",
          "name": "recipient",
          "type": "address"
        },
        {
          "indexed": false,
          "internalType": "bytes32[3]",
          "name": "seeds",
          "type": "bytes32[3]"
        },
        {
          "indexed": false,
          "internalType": "uint256",
          "name": "timestamp",
          "type": "uint256"
        }
      ],
      "name": "OwnerMintRequested",
      "type": "event"
    },
    {
      "anonymous": false,
      "inputs": [
        {
          "indexed": true,
          "internalType": "address",
          "name": "previousOwner",
          "type": "address"
        },
        {
          "indexed": true,
          "internalType": "address",
          "name": "newOwner",
          "type": "address"
        }
      ],
      "name": "OwnershipTransferred",
      "type": "event"
    },
    {
      "anonymous": false,
      "inputs": [
        {
          "indexed": true,
          "internalType": "address",
          "name": "proposer",
          "type": "address"
        },
        {
          "indexed": false,
          "internalType": "string",
          "name": "proposedURI",
          "type": "string"
        },
        {
          "indexed": false,
          "internalType": "uint256",
          "name": "timestamp",
          "type": "uint256"
        }
      ],
      "name": "ProposalCreated",
      "type": "event"
    },
    {
      "anonymous": false,
      "inputs": [
        {
          "indexed": false,
          "internalType": "string",
          "name": "lockedURI",
          "type": "string"
        }
      ],
      "name": "ProposalLocked",
      "type": "event"
    },
    {
      "anonymous": false,
      "inputs": [
        {
          "indexed": false,
          "internalType": "string",
          "name": "proposedURI",
          "type": "string"
        },
        {
          "indexed": false,
          "internalType": "uint256",
          "name": "timestamp",
          "type": "uint256"
        }
      ],
      "name": "ProposalThresholdReached",
      "type": "event"
    },
    {
      "anonymous": false,
      "inputs": [
        {
          "indexed": true,
          "internalType": "address",
          "name": "newReceiver",
          "type": "address"
        }
      ],
      "name": "RoyaltyReceiverUpdated",
      "type": "event"
    },
    {
      "anonymous": false,
      "inputs": [
        {
          "indexed": true,
          "internalType": "address",
          "name": "from",
          "type": "address"
        },
        {
          "indexed": true,
          "internalType": "address",
          "name": "to",
          "type": "address"
        },
        {
          "indexed": true,
          "internalType": "uint256",
          "name": "tokenId",
          "type": "uint256"
        }
      ],
      "name": "Transfer",
      "type": "event"
    },
    {
      "anonymous": false,
      "inputs": [
        {
          "indexed": true,
          "internalType": "address",
          "name": "voter",
          "type": "address"
        },
        {
          "indexed": false,
          "internalType": "uint256",
          "name": "weight",
          "type": "uint256"
        }
      ],
      "name": "VoteCast",
      "type": "event"
    },
    {
      "inputs": [],
      "name": "CONFIRMATION_WINDOW",
      "outputs": [
        {
          "internalType": "uint256",
          "name": "",
          "type": "uint256"
        }
      ],
      "stateMutability": "view",
      "type": "function"
    },
    {
      "inputs": [
        {
          "internalType": "uint256",
          "name": "",
          "type": "uint256"
        }
      ],
      "name": "DEFAULT_PALETTE",
      "outputs": [
        {
          "internalType": "string",
          "name": "",
          "type": "string"
        }
      ],
      "stateMutability": "view",
      "type": "function"
    },
    {
      "inputs": [],
      "name": "GLOBAL_COOLDOWN",
      "outputs": [
        {
          "internalType": "uint256",
          "name": "",
          "type": "uint256"
        }
      ],
      "stateMutability": "view",
      "type": "function"
    },
    {
      "inputs": [],
      "name": "GOVERNANCE_DELAY",
      "outputs": [
        {
          "internalType": "uint256",
          "name": "",
          "type": "uint256"
        }
      ],
      "stateMutability": "view",
      "type": "function"
    },
    {
      "inputs": [],
      "name": "MAX_PER_WALLET",
      "outputs": [
        {
          "internalType": "uint256",
          "name": "",
          "type": "uint256"
        }
      ],
      "stateMutability": "view",
      "type": "function"
    },
    {
      "inputs": [],
      "name": "MAX_SUPPLY",
      "outputs": [
        {
          "internalType": "uint256",
          "name": "",
          "type": "uint256"
        }
      ],
      "stateMutability": "view",
      "type": "function"
    },
    {
      "inputs": [],
      "name": "MILESTONE_100",
      "outputs": [
        {
          "internalType": "uint256",
          "name": "",
          "type": "uint256"
        }
      ],
      "stateMutability": "view",
      "type": "function"
    },
    {
      "inputs": [],
      "name": "MILESTONE_500",
      "outputs": [
        {
          "internalType": "uint256",
          "name": "",
          "type": "uint256"
        }
      ],
      "stateMutability": "view",
      "type": "function"
    },
    {
      "inputs": [],
      "name": "MILESTONE_750",
      "outputs": [
        {
          "internalType": "uint256",
          "name": "",
          "type": "uint256"
        }
      ],
      "stateMutability": "view",
      "type": "function"
    },
    {
      "inputs": [],
      "name": "MILESTONE_999",
      "outputs": [
        {
          "internalType": "uint256",
          "name": "",
          "type": "uint256"
        }
      ],
      "stateMutability": "view",
      "type": "function"
    },
    {
      "inputs": [],
      "name": "OWNER_RESERVE",
      "outputs": [
        {
          "internalType": "uint256",
          "name": "",
          "type": "uint256"
        }
      ],
      "stateMutability": "view",
      "type": "function"
    },
    {
      "inputs": [],
      "name": "PROPOSAL_COOLDOWN",
      "outputs": [
        {
          "internalType": "uint256",
          "name": "",
          "type": "uint256"
        }
      ],
      "stateMutability": "view",
      "type": "function"
    },
    {
      "inputs": [],
      "name": "REQUEST_EXPIRATION",
      "outputs": [
        {
          "internalType": "uint256",
          "name": "",
          "type": "uint256"
        }
      ],
      "stateMutability": "view",
      "type": "function"
    },
    {
      "inputs": [],
      "name": "ROYALTY_BPS",
      "outputs": [
        {
          "internalType": "uint96",
          "name": "",
          "type": "uint96"
        }
      ],
      "stateMutability": "view",
      "type": "function"
    },
    {
      "inputs": [],
      "name": "WALLET_COOLDOWN",
      "outputs": [
        {
          "internalType": "uint256",
          "name": "",
          "type": "uint256"
        }
      ],
      "stateMutability": "view",
      "type": "function"
    },
    {
      "inputs": [],
      "name": "activeMintRequestTime",
      "outputs": [
        {
          "internalType": "uint256",
          "name": "",
          "type": "uint256"
        }
      ],
      "stateMutability": "view",
      "type": "function"
    },
    {
      "inputs": [],
      "name": "activeMintRequester",
      "outputs": [
        {
          "internalType": "address",
          "name": "",
          "type": "address"
        }
      ],
      "stateMutability": "view",
      "type": "function"
    },
    {
      "inputs": [
        {
          "internalType": "uint256",
          "name": "",
          "type": "uint256"
        }
      ],
      "name": "allowedMutations",
      "outputs": [
        {
          "internalType": "string",
          "name": "",
          "type": "string"
        }
      ],
      "stateMutability": "view",
      "type": "function"
    },
    {
      "inputs": [
        {
          "internalType": "address",
          "name": "to",
          "type": "address"
        },
        {
          "internalType": "uint256",
          "name": "tokenId",
          "type": "uint256"
        }
      ],
      "name": "approve",
      "outputs": [],
      "stateMutability": "nonpayable",
      "type": "function"
    },
    {
      "inputs": [],
      "name": "approveProposal",
      "outputs": [],
      "stateMutability": "nonpayable",
      "type": "function"
    },
    {
      "inputs": [
        {
          "internalType": "address",
          "name": "owner",
          "type": "address"
        }
      ],
      "name": "balanceOf",
      "outputs": [
        {
          "internalType": "uint256",
          "name": "",
          "type": "uint256"
        }
      ],
      "stateMutability": "view",
      "type": "function"
    },
    {
      "inputs": [],
      "name": "baseURI",
      "outputs": [
        {
          "internalType": "string",
          "name": "",
          "type": "string"
        }
      ],
      "stateMutability": "view",
      "type": "function"
    },
    {
      "inputs": [
        {
          "internalType": "uint256",
          "name": "tokenId",
          "type": "uint256"
        }
      ],
      "name": "canMutate",
      "outputs": [
        {
          "internalType": "bool",
          "name": "",
          "type": "bool"
        }
      ],
      "stateMutability": "view",
      "type": "function"
    },
    {
      "inputs": [],
      "name": "collectionLaunchDate",
      "outputs": [
        {
          "internalType": "uint256",
          "name": "",
          "type": "uint256"
        }
      ],
      "stateMutability": "view",
      "type": "function"
    },
    {
      "inputs": [
        {
          "internalType": "uint8",
          "name": "seedChoice",
          "type": "uint8"
        }
      ],
      "name": "completeMint",
      "outputs": [],
      "stateMutability": "nonpayable",
      "type": "function"
    },
    {
      "inputs": [
        {
          "internalType": "uint8",
          "name": "seedChoice",
          "type": "uint8"
        }
      ],
      "name": "completeOwnerMint",
      "outputs": [],
      "stateMutability": "nonpayable",
      "type": "function"
    },
    {
      "inputs": [],
      "name": "confirmProposal",
      "outputs": [],
      "stateMutability": "nonpayable",
      "type": "function"
    },
    {
      "inputs": [],
      "name": "currentProposal",
      "outputs": [
        {
          "internalType": "address",
          "name": "proposer",
          "type": "address"
        },
        {
          "internalType": "string",
          "name": "proposedBaseURI",
          "type": "string"
        },
        {
          "internalType": "uint256",
          "name": "proposalTime",
          "type": "uint256"
        },
        {
          "internalType": "uint256",
          "name": "totalVotesWeight",
          "type": "uint256"
        },
        {
          "internalType": "bool",
          "name": "locked",
          "type": "bool"
        },
        {
          "internalType": "bool",
          "name": "thresholdReached",
          "type": "bool"
        },
        {
          "internalType": "uint256",
          "name": "thresholdReachedTime",
          "type": "uint256"
        },
        {
          "internalType": "bool",
          "name": "executed",
          "type": "bool"
        }
      ],
      "stateMutability": "view",
      "type": "function"
    },
    {
      "inputs": [
        {
          "internalType": "uint256",
          "name": "",
          "type": "uint256"
        }
      ],
      "name": "currentProposalVoters",
      "outputs": [
        {
          "internalType": "address",
          "name": "",
          "type": "address"
        }
      ],
      "stateMutability": "view",
      "type": "function"
    },
    {
      "inputs": [
        {
          "internalType": "uint256",
          "name": "",
          "type": "uint256"
        },
        {
          "internalType": "uint256",
          "name": "",
          "type": "uint256"
        }
      ],
      "name": "customPalettes",
      "outputs": [
        {
          "internalType": "string",
          "name": "",
          "type": "string"
        }
      ],
      "stateMutability": "view",
      "type": "function"
    },
    {
      "inputs": [],
      "name": "deploymentTime",
      "outputs": [
        {
          "internalType": "uint256",
          "name": "",
          "type": "uint256"
        }
      ],
      "stateMutability": "view",
      "type": "function"
    },
    {
      "inputs": [],
      "name": "generatorContract",
      "outputs": [
        {
          "internalType": "address",
          "name": "",
          "type": "address"
        }
      ],
      "stateMutability": "view",
      "type": "function"
    },
    {
      "inputs": [],
      "name": "getAllowedMutations",
      "outputs": [
        {
          "internalType": "string[]",
          "name": "",
          "type": "string[]"
        }
      ],
      "stateMutability": "view",
      "type": "function"
    },
    {
      "inputs": [
        {
          "internalType": "uint256",
          "name": "tokenId",
          "type": "uint256"
        }
      ],
      "name": "getApproved",
      "outputs": [
        {
          "internalType": "address",
          "name": "",
          "type": "address"
        }
      ],
      "stateMutability": "view",
      "type": "function"
    },
    {
      "inputs": [],
      "name": "getCurrentPrice",
      "outputs": [
        {
          "internalType": "uint256",
          "name": "",
          "type": "uint256"
        }
      ],
      "stateMutability": "view",
      "type": "function"
    },
    {
      "inputs": [],
      "name": "getCurrentProposal",
      "outputs": [
        {
          "internalType": "address",
          "name": "proposer",
          "type": "address"
        },
        {
          "internalType": "string",
          "name": "proposedURI",
          "type": "string"
        },
        {
          "internalType": "uint256",
          "name": "proposalTime",
          "type": "uint256"
        },
        {
          "internalType": "uint256",
          "name": "totalVotes",
          "type": "uint256"
        },
        {
          "internalType": "bool",
          "name": "locked",
          "type": "bool"
        },
        {
          "internalType": "bool",
          "name": "thresholdReached",
          "type": "bool"
        },
        {
          "internalType": "uint256",
          "name": "thresholdTime",
          "type": "uint256"
        },
        {
          "internalType": "bool",
          "name": "executed",
          "type": "bool"
        }
      ],
      "stateMutability": "view",
      "type": "function"
    },
    {
      "inputs": [
        {
          "internalType": "uint256",
          "name": "tokenId",
          "type": "uint256"
        }
      ],
      "name": "getCustomPalette",
      "outputs": [
        {
          "internalType": "string[6]",
          "name": "",
          "type": "string[6]"
        }
      ],
      "stateMutability": "view",
      "type": "function"
    },
    {
      "inputs": [
        {
          "internalType": "address",
          "name": "minter",
          "type": "address"
        }
      ],
      "name": "getPendingRequest",
      "outputs": [
        {
          "components": [
            {
              "internalType": "bytes32[3]",
              "name": "seeds",
              "type": "bytes32[3]"
            },
            {
              "internalType": "uint256",
              "name": "timestamp",
              "type": "uint256"
            },
            {
              "internalType": "bool",
              "name": "completed",
              "type": "bool"
            },
            {
              "internalType": "address",
              "name": "recipient",
              "type": "address"
            },
            {
              "internalType": "bool",
              "name": "isOwnerMint",
              "type": "bool"
            },
            {
              "internalType": "bool",
              "name": "hasCustomPalette",
              "type": "bool"
            }
          ],
          "internalType": "struct Spatters.MintRequest",
          "name": "",
          "type": "tuple"
        }
      ],
      "stateMutability": "view",
      "type": "function"
    },
    {
      "inputs": [
        {
          "internalType": "uint256",
          "name": "tokenId",
          "type": "uint256"
        }
      ],
      "name": "getTokenMutations",
      "outputs": [
        {
          "components": [
            {
              "internalType": "string",
              "name": "mutationType",
              "type": "string"
            },
            {
              "internalType": "bytes32",
              "name": "seed",
              "type": "bytes32"
            },
            {
              "internalType": "uint256",
              "name": "timestamp",
              "type": "uint256"
            }
          ],
          "internalType": "struct Spatters.MutationRecord[]",
          "name": "",
          "type": "tuple[]"
        }
      ],
      "stateMutability": "view",
      "type": "function"
    },
    {
      "inputs": [
        {
          "internalType": "address",
          "name": "",
          "type": "address"
        }
      ],
      "name": "hasVotedForCurrentProposal",
      "outputs": [
        {
          "internalType": "bool",
          "name": "",
          "type": "bool"
        }
      ],
      "stateMutability": "view",
      "type": "function"
    },
    {
      "inputs": [
        {
          "internalType": "address",
          "name": "owner",
          "type": "address"
        },
        {
          "internalType": "address",
          "name": "operator",
          "type": "address"
        }
      ],
      "name": "isApprovedForAll",
      "outputs": [
        {
          "internalType": "bool",
          "name": "",
          "type": "bool"
        }
      ],
      "stateMutability": "view",
      "type": "function"
    },
    {
      "inputs": [],
      "name": "isMintSelectionInProgress",
      "outputs": [
        {
          "internalType": "bool",
          "name": "active",
          "type": "bool"
        },
        {
          "internalType": "address",
          "name": "requester",
          "type": "address"
        },
        {
          "internalType": "uint256",
          "name": "expiresAt",
          "type": "uint256"
        }
      ],
      "stateMutability": "view",
      "type": "function"
    },
    {
      "inputs": [],
      "name": "lastGlobalMintTime",
      "outputs": [
        {
          "internalType": "uint256",
          "name": "",
          "type": "uint256"
        }
      ],
      "stateMutability": "view",
      "type": "function"
    },
    {
      "inputs": [
        {
          "internalType": "address",
          "name": "",
          "type": "address"
        }
      ],
      "name": "lastMintTime",
      "outputs": [
        {
          "internalType": "uint256",
          "name": "",
          "type": "uint256"
        }
      ],
      "stateMutability": "view",
      "type": "function"
    },
    {
      "inputs": [
        {
          "internalType": "uint256",
          "name": "",
          "type": "uint256"
        }
      ],
      "name": "lastMutationDay",
      "outputs": [
        {
          "internalType": "uint256",
          "name": "",
          "type": "uint256"
        }
      ],
      "stateMutability": "view",
      "type": "function"
    },
    {
      "inputs": [],
      "name": "lastProposalTime",
      "outputs": [
        {
          "internalType": "uint256",
          "name": "",
          "type": "uint256"
        }
      ],
      "stateMutability": "view",
      "type": "function"
    },
    {
      "inputs": [
        {
          "internalType": "address",
          "name": "",
          "type": "address"
        }
      ],
      "name": "mintedPerWallet",
      "outputs": [
        {
          "internalType": "uint256",
          "name": "",
          "type": "uint256"
        }
      ],
      "stateMutability": "view",
      "type": "function"
    },
    {
      "inputs": [
        {
          "internalType": "uint256",
          "name": "tokenId",
          "type": "uint256"
        },
        {
          "internalType": "string",
          "name": "mutationType",
          "type": "string"
        }
      ],
      "name": "mutate",
      "outputs": [],
      "stateMutability": "nonpayable",
      "type": "function"
    },
    {
      "inputs": [],
      "name": "name",
      "outputs": [
        {
          "internalType": "string",
          "name": "",
          "type": "string"
        }
      ],
      "stateMutability": "view",
      "type": "function"
    },
    {
      "inputs": [],
      "name": "owner",
      "outputs": [
        {
          "internalType": "address",
          "name": "",
          "type": "address"
        }
      ],
      "stateMutability": "view",
      "type": "function"
    },
    {
      "inputs": [
        {
          "internalType": "address",
          "name": "to",
          "type": "address"
        },
        {
          "internalType": "string[6]",
          "name": "customPalette",
          "type": "string[6]"
        },
        {
          "internalType": "bytes32",
          "name": "customSeed",
          "type": "bytes32"
        }
      ],
      "name": "ownerMint",
      "outputs": [],
      "stateMutability": "nonpayable",
      "type": "function"
    },
    {
      "inputs": [
        {
          "internalType": "uint256",
          "name": "tokenId",
          "type": "uint256"
        },
        {
          "internalType": "string",
          "name": "mutationType",
          "type": "string"
        }
      ],
      "name": "ownerMutate",
      "outputs": [],
      "stateMutability": "nonpayable",
      "type": "function"
    },
    {
      "inputs": [
        {
          "internalType": "uint256",
          "name": "tokenId",
          "type": "uint256"
        }
      ],
      "name": "ownerOf",
      "outputs": [
        {
          "internalType": "address",
          "name": "",
          "type": "address"
        }
      ],
      "stateMutability": "view",
      "type": "function"
    },
    {
      "inputs": [],
      "name": "p5jsScriptAddress",
      "outputs": [
        {
          "internalType": "address",
          "name": "",
          "type": "address"
        }
      ],
      "stateMutability": "view",
      "type": "function"
    },
    {
      "inputs": [
        {
          "internalType": "address",
          "name": "",
          "type": "address"
        },
        {
          "internalType": "uint256",
          "name": "",
          "type": "uint256"
        }
      ],
      "name": "pendingPalettes",
      "outputs": [
        {
          "internalType": "string",
          "name": "",
          "type": "string"
        }
      ],
      "stateMutability": "view",
      "type": "function"
    },
    {
      "inputs": [
        {
          "internalType": "address",
          "name": "",
          "type": "address"
        }
      ],
      "name": "pendingRequests",
      "outputs": [
        {
          "internalType": "uint256",
          "name": "timestamp",
          "type": "uint256"
        },
        {
          "internalType": "bool",
          "name": "completed",
          "type": "bool"
        },
        {
          "internalType": "address",
          "name": "recipient",
          "type": "address"
        },
        {
          "internalType": "bool",
          "name": "isOwnerMint",
          "type": "bool"
        },
        {
          "internalType": "bool",
          "name": "hasCustomPalette",
          "type": "bool"
        }
      ],
      "stateMutability": "view",
      "type": "function"
    },
    {
      "inputs": [
        {
          "internalType": "string",
          "name": "newURI",
          "type": "string"
        }
      ],
      "name": "proposeBaseURI",
      "outputs": [],
      "stateMutability": "nonpayable",
      "type": "function"
    },
    {
      "inputs": [],
      "name": "renounceOwnership",
      "outputs": [],
      "stateMutability": "nonpayable",
      "type": "function"
    },
    {
      "inputs": [],
      "name": "requestMint",
      "outputs": [
        {
          "internalType": "bytes32[3]",
          "name": "",
          "type": "bytes32[3]"
        }
      ],
      "stateMutability": "payable",
      "type": "function"
    },
    {
      "inputs": [
        {
          "internalType": "address",
          "name": "to",
          "type": "address"
        },
        {
          "internalType": "string[6]",
          "name": "customPalette",
          "type": "string[6]"
        }
      ],
      "name": "requestOwnerMint",
      "outputs": [
        {
          "internalType": "bytes32[3]",
          "name": "",
          "type": "bytes32[3]"
        }
      ],
      "stateMutability": "nonpayable",
      "type": "function"
    },
    {
      "inputs": [
        {
          "internalType": "uint256",
          "name": "tokenId",
          "type": "uint256"
        },
        {
          "internalType": "uint256",
          "name": "salePrice",
          "type": "uint256"
        }
      ],
      "name": "royaltyInfo",
      "outputs": [
        {
          "internalType": "address",
          "name": "receiver",
          "type": "address"
        },
        {
          "internalType": "uint256",
          "name": "royaltyAmount",
          "type": "uint256"
        }
      ],
      "stateMutability": "view",
      "type": "function"
    },
    {
      "inputs": [],
      "name": "royaltyReceiver",
      "outputs": [
        {
          "internalType": "address",
          "name": "",
          "type": "address"
        }
      ],
      "stateMutability": "view",
      "type": "function"
    },
    {
      "inputs": [
        {
          "internalType": "address",
          "name": "from",
          "type": "address"
        },
        {
          "internalType": "address",
          "name": "to",
          "type": "address"
        },
        {
          "internalType": "uint256",
          "name": "tokenId",
          "type": "uint256"
        }
      ],
      "name": "safeTransferFrom",
      "outputs": [],
      "stateMutability": "nonpayable",
      "type": "function"
    },
    {
      "inputs": [
        {
          "internalType": "address",
          "name": "from",
          "type": "address"
        },
        {
          "internalType": "address",
          "name": "to",
          "type": "address"
        },
        {
          "internalType": "uint256",
          "name": "tokenId",
          "type": "uint256"
        },
        {
          "internalType": "bytes",
          "name": "data",
          "type": "bytes"
        }
      ],
      "name": "safeTransferFrom",
      "outputs": [],
      "stateMutability": "nonpayable",
      "type": "function"
    },
    {
      "inputs": [
        {
          "internalType": "address",
          "name": "operator",
          "type": "address"
        },
        {
          "internalType": "bool",
          "name": "approved",
          "type": "bool"
        }
      ],
      "name": "setApprovalForAll",
      "outputs": [],
      "stateMutability": "nonpayable",
      "type": "function"
    },
    {
      "inputs": [
        {
          "internalType": "string",
          "name": "newURI",
          "type": "string"
        }
      ],
      "name": "setBaseURI",
      "outputs": [],
      "stateMutability": "nonpayable",
      "type": "function"
    },
    {
      "inputs": [
        {
          "internalType": "address",
          "name": "_generator",
          "type": "address"
        }
      ],
      "name": "setGeneratorContract",
      "outputs": [],
      "stateMutability": "nonpayable",
      "type": "function"
    },
    {
      "inputs": [
        {
          "internalType": "address",
          "name": "newReceiver",
          "type": "address"
        }
      ],
      "name": "setRoyaltyReceiver",
      "outputs": [],
      "stateMutability": "nonpayable",
      "type": "function"
    },
    {
      "inputs": [
        {
          "internalType": "address",
          "name": "_p5jsAddress",
          "type": "address"
        },
        {
          "internalType": "address",
          "name": "_spattersAddress",
          "type": "address"
        }
      ],
      "name": "setScriptAddresses",
      "outputs": [],
      "stateMutability": "nonpayable",
      "type": "function"
    },
    {
      "inputs": [],
      "name": "spattersScriptAddress",
      "outputs": [
        {
          "internalType": "address",
          "name": "",
          "type": "address"
        }
      ],
      "stateMutability": "view",
      "type": "function"
    },
    {
      "inputs": [
        {
          "internalType": "bytes4",
          "name": "interfaceId",
          "type": "bytes4"
        }
      ],
      "name": "supportsInterface",
      "outputs": [
        {
          "internalType": "bool",
          "name": "",
          "type": "bool"
        }
      ],
      "stateMutability": "view",
      "type": "function"
    },
    {
      "inputs": [],
      "name": "symbol",
      "outputs": [
        {
          "internalType": "string",
          "name": "",
          "type": "string"
        }
      ],
      "stateMutability": "view",
      "type": "function"
    },
    {
      "inputs": [
        {
          "internalType": "uint256",
          "name": "",
          "type": "uint256"
        },
        {
          "internalType": "uint256",
          "name": "",
          "type": "uint256"
        }
      ],
      "name": "tokenMutations",
      "outputs": [
        {
          "internalType": "string",
          "name": "mutationType",
          "type": "string"
        },
        {
          "internalType": "bytes32",
          "name": "seed",
          "type": "bytes32"
        },
        {
          "internalType": "uint256",
          "name": "timestamp",
          "type": "uint256"
        }
      ],
      "stateMutability": "view",
      "type": "function"
    },
    {
      "inputs": [
        {
          "internalType": "uint256",
          "name": "tokenId",
          "type": "uint256"
        }
      ],
      "name": "tokenURI",
      "outputs": [
        {
          "internalType": "string",
          "name": "",
          "type": "string"
        }
      ],
      "stateMutability": "view",
      "type": "function"
    },
    {
      "inputs": [
        {
          "internalType": "uint256",
          "name": "",
          "type": "uint256"
        }
      ],
      "name": "tokens",
      "outputs": [
        {
          "internalType": "bytes32",
          "name": "mintSeed",
          "type": "bytes32"
        },
        {
          "internalType": "uint256",
          "name": "mintTimestamp",
          "type": "uint256"
        }
      ],
      "stateMutability": "view",
      "type": "function"
    },
    {
      "inputs": [],
      "name": "totalSupply",
      "outputs": [
        {
          "internalType": "uint256",
          "name": "",
          "type": "uint256"
        }
      ],
      "stateMutability": "view",
      "type": "function"
    },
    {
      "inputs": [
        {
          "internalType": "address",
          "name": "from",
          "type": "address"
        },
        {
          "internalType": "address",
          "name": "to",
          "type": "address"
        },
        {
          "internalType": "uint256",
          "name": "tokenId",
          "type": "uint256"
        }
      ],
      "name": "transferFrom",
      "outputs": [],
      "stateMutability": "nonpayable",
      "type": "function"
    },
    {
      "inputs": [
        {
          "internalType": "address",
          "name": "newOwner",
          "type": "address"
        }
      ],
      "name": "transferOwnership",
      "outputs": [],
      "stateMutability": "nonpayable",
      "type": "function"
    },
    {
      "inputs": [],
      "name": "withdraw",
      "outputs": [],
      "stateMutability": "nonpayable",
      "type": "function"
    },
    {
      "stateMutability": "payable",
      "type": "receive"
    }
  ],
  "bytecode": "0x604060a081523463000029bf5763000082f88038038063000000228163000029fb565b9283398101828282031263000029bf5781516001600160401b03811163000029bf5782019181601f8401121563000029bf578251916001600160401b03831163000029c4578260051b936020630000007d81870163000029fb565b8095815201906020829682010192831163000029bf57602001905b82821063000029a157505050602063000000b491016300002a22565b9163000000c163000029da565b906008825267537061747465727360c01b602083015263000000e363000029da565b60048082526314d4105560e21b60208301528351909591906001600160401b038111630000298c5780600095630000011d87546300002a38565b601f81116300002954575b50602090601f831160011463000028e657879263000028d9575b50508160011b916000199060031b1c19161784555b8051906001600160401b03821163000025dd578190630000017b6001546300002a38565b601f81116300002893575b50602090601f831160011463000028165786926300002809575b50508160011b916000199060031b1c1916176001555b331563000027f25760068054336001600160a01b0319821681179092556001600160a01b0392919083167f8be0079c531659141344cd1fd0a4f28419497f9722a3daafe3b4186f6b6457e08680a36001600790815587519060c082016001600160401b0381118382101763000027df578952630000023463000029da565b818152662366633161346160c81b60208201528252630000025563000029da565b8181526608cdcd590d0e4d60ca1b60208201526020830152630000027963000029da565b818152662332353837633360c81b602082015289830152630000029c63000029da565b818152662366326339343560c81b6020820152606083015263000002c063000029da565b818152660233030303030360cc1b6020820152608083015263000002e463000029da565b9081526611a3232323232360c91b602082015260a082015260089085905b60068210630000268e5750505060229460018655805115630000264b57516001600160401b03811163000025dd576801000000000000000093848211630000263857601b5482601b558083106300002608575b50601b865260008051602063000082b8833981519152865b83811063000025f0575050601c80546001600160a81b0319169390941692909217600160a01b1783555050600e80546001600160a01b0319163317905542608052602980549091908381101563000025dd5780600163000003d2920184556300002b25565b63000025cb5763000003f363000003eb82546300002a38565b826300002a93565b8570617370656374526174696f4368616e676560781b01905581548381101563000025dd57806001630000042b920184556300002b25565b95909563000025cb57630000044f630000044787546300002a38565b876300002a93565b602495867162617365526164697573496e63726561736560701b019055825484811015630000255057806001630000048b920185556300002b25565b630000253f5763000004a463000003eb82546300002a38565b867162617365526164697573446563726561736560701b01905582548481101563000025505780600163000004dd920185556300002b25565b630000253f5763000004f663000003eb82546300002a38565b86716772616469656e74547970654368616e676560701b019055825484811015630000255057806001630000052f920185556300002b25565b630000253f57630000054863000003eb82546300002a38565b867164697669646572436f756e744368616e676560701b0190558254848110156300002550578060016300000581920185556300002b25565b630000253f57630000059a63000003eb82546300002a38565b8170636972636c65436f756e744368616e676560781b01905582548481101563000025505780600163000005d2920185556300002b25565b630000253f5763000005eb63000003eb82546300002a38565b7f6c696e65436f756e744368616e6765000000000000000000000000000000001e90558254601e90858110156300002573578060016300000630920186556300002b25565b630000256257630000064963000003eb82546300002a38565b8771636972636c6553697a65496e63726561736560701b0190558354858110156300002573578060016300000682920186556300002b25565b630000256257630000069b63000003eb82546300002a38565b8771636972636c6553697a65446563726561736560701b01905583548581101563000025735780600163000006d4920186556300002b25565b63000025625763000006ed63000003eb82546300002a38565b7f636972636c65506f736974696f6e4368616e67650000000000000000000000289055835485811015630000257357806001630000072f920186556300002b25565b630000256257630000074863000003eb82546300002a38565b836d18da5c98db19535bdd995319599d60921b019055835485811015630000257357806001630000077d920186556300002b25565b630000256257630000079663000003eb82546300002a38565b816e18da5c98db19535bdd99549a59da1d608a1b01905583548581101563000025735780600163000007cc920186556300002b25565b63000025625763000007e563000003eb82546300002a38565b7f636972636c654d6f76655570000000000000000000000000000000000000001890558354858110156300002573578060016300000827920186556300002b25565b630000256257630000084063000003eb82546300002a38565b836d31b4b931b632a6b7bb32a237bbb760911b0190558354858110156300002573578060016300000875920186556300002b25565b630000256257630000088e63000003eb82546300002a38565b82706c696e655769647468496e63726561736560781b01905583548581101563000025735780600163000008c6920186556300002b25565b63000025625763000008df63000003eb82546300002a38565b82706c696e655769647468446563726561736560781b0190558354858110156300002573578060016300000917920186556300002b25565b630000256257630000093063000003eb82546300002a38565b816e6c696e65416e676c654368616e676560881b0190558354858110156300002573578060016300000966920186556300002b25565b630000256257630000097f63000003eb82546300002a38565b87716c696e654c656e677468496e63726561736560701b01905583548581101563000025735780600163000009b8920186556300002b25565b63000025625763000009d163000003eb82546300002a38565b87716c696e654c656e677468446563726561736560701b0190558354858110156300002573578060016300000a0a920186556300002b25565b6300002562576300000a2363000003eb82546300002a38565b87716c696e65506f736974696f6e4368616e676560701b0190558354858110156300002573578060016300000a5c920186556300002b25565b6300002562576300000a7563000003eb82546300002a38565b7f6c696e654d6f76654c656674000000000000000000000000000000000000001890558354858110156300002573578060016300000ab7920186556300002b25565b6300002562576300000ad063000003eb82546300002a38565b7f6c696e654d6f766552696768740000000000000000000000000000000000001a90558354858110156300002573578060016300000b12920186556300002b25565b6300002562576300000b2b63000003eb82546300002a38565b7f6c696e654d6f766555700000000000000000000000000000000000000000001490558354858110156300002573578060016300000b6d920186556300002b25565b6300002562576300000b8663000003eb82546300002a38565b7f6c696e654d6f7665446f776e000000000000000000000000000000000000001890558354858110156300002573578060016300000bc8920186556300002b25565b6300002562576300000be163000003eb82546300002a38565b7f70616c657474654368616e67654f6e650000000000000000000000000000002090558354858110156300002573578060016300000c23920186556300002b25565b6300002562576300000c3c63000003eb82546300002a38565b7f70616c657474654368616e6765416c6c0000000000000000000000000000002090558354858110156300002573578060016300000c7e920186556300002b25565b6300002562576300000c9763000003eb82546300002a38565b827070616c65747465436f6d62696e654f6e6560781b0190558354858110156300002573578060016300000ccf920186556300002b25565b6300002562576300000ce863000003eb82546300002a38565b82701c185b195d1d1950dbdb589a5b99505b1b607a1b0190558354858110156300002573578060016300000d20920186556300002b25565b6300002562576300000d3963000003eb82546300002a38565b816e70616c6574746552657365744f6e6560881b0190558354858110156300002573578060016300000d6f920186556300002b25565b6300002562576300000d8863000003eb82546300002a38565b816e1c185b195d1d1954995cd95d105b1b608a1b0190558354858110156300002573578060016300000dbe920186556300002b25565b6300002562576300000dd763000003eb82546300002a38565b836d70616c6574746553687566666c6560901b0190558354858110156300002573578060016300000e0c920186556300002b25565b6300002562576300000e2563000003eb82546300002a38565b7f646976696465724d6f766500000000000000000000000000000000000000001690558354858110156300002573578060016300000e67920186556300002b25565b6300002562576300000e8063000003eb82546300002a38565b7f64697669646572526f746174650000000000000000000000000000000000001a90558354858110156300002573578060016300000ec2920186556300002b25565b6300002562576300000edb63000003eb82546300002a38565b600c65726f7461746560d01b0190558354858110156300002573578060016300000f09920186556300002b25565b9290926300002562576300000f2d6300000f2584546300002a38565b846300002a93565b602c92837f73656564506f696e74436f756e74496e637265617365000000000000000000000190558454868110156300002596578060016300000f74920187556300002b25565b6300002585576300000f8d63000003eb82546300002a38565b837f73656564506f696e74436f756e744465637265617365000000000000000000000190558454868110156300002596578060016300000fd1920187556300002b25565b6300002585576300000fea63000003eb82546300002a38565b88711cd959591c1bda5b9d135bdd99549a59da1d60721b0190558454868110156300002596578060016300001023920187556300002b25565b630000258557630000103c63000003eb82546300002a38565b81701cd959591c1bda5b9d135bdd995319599d607a1b0190558454868110156300002596578060016300001074920187556300002b25565b630000258557630000108d63000003eb82546300002a38565b826e073656564706f696e744d6f7665557608c1b01905584548681101563000025965780600163000010c3920187556300002b25565b63000025855763000010dc63000003eb82546300002a38565b817039b2b2b23837b4b73a26b7bb32a237bbb760791b0190558454868110156300002596578060016300001114920187556300002b25565b630000258557630000112d63000003eb82546300002a38565b7f73656564706f696e744368616e6765437572766543656e7465720000000000349055845486811015630000259657806001630000116f920187556300002b25565b630000258557630000118863000003eb82546300002a38565b7f73656564706f696e74496e637265617365436f6e636176697479000000000034905584548681101563000025965780600163000011ca920187556300002b25565b63000025855763000011e363000003eb82546300002a38565b7f73656564706f696e744465637265617365436f6e63617669747900000000003490558454868110156300002596578060016300001225920187556300002b25565b9490946300002585576300001249630000124186546300002a38565b866300002a93565b602e94857f73656564706f696e74496e63726561736552616469757300000000000000000001905585548781101563000025b9578060016300001290920188556300002b25565b63000025a85763000012a963000003eb82546300002a38565b857f73656564706f696e74446563726561736552616469757300000000000000000001905585548781101563000025b95780600163000012ed920188556300002b25565b63000025a857630000130663000003eb82546300002a38565b7f7368617065457870616e64000000000000000000000000000000000000000016905585548781101563000025b9578060016300001348920188556300002b25565b63000025a857630000136163000003eb82546300002a38565b7f7368617065536872696e6b000000000000000000000000000000000000000016905585548781101563000025b95780600163000013a3920188556300002b25565b91909163000025a85763000013c763000013bf83546300002a38565b836300002a93565b6d39b430b832a6b0b5b2abb4b232b960911b01905584548681101563000025965780600163000013fb920187556300002b25565b919091630000258557630000141763000013bf83546300002a38565b7039b430b832a6b0b5b2a730b93937bbb2b960791b019055835485811015630000257357806001630000144e920186556300002b25565b919091630000256257630000146a63000013bf83546300002a38565b6e39b430b832a6b0b5b2a434b3b432b960891b019055825484811015630000255057806001630000149f920185556300002b25565b630000253f5763000014b863000003eb82546300002a38565b7f73686170654d616b6553686f7274657200000000000000000000000000000020905582548481101563000025505780600163000014fa920185556300002b25565b630000253f57630000151363000003eb82546300002a38565b827f73686170654368616e6765437572766543656e746572730000000000000000000190558254848110156300002550578060016300001557920185556300002b25565b630000253f57630000157063000003eb82546300002a38565b817f7368617065496e637265617365436f6e6361766974790000000000000000000001905582548481101563000025505780600163000015b4920185556300002b25565b630000253f5763000015cd63000003eb82546300002a38565b7f7368617065526564756365436f6e6361766974790000000000000000000000289055825484811015630000255057806001630000160f920185556300002b25565b630000253f57630000162863000003eb82546300002a38565b7f73686170654368616e67655261646975736573000000000000000000000000269055825484811015630000255057806001630000166a920185556300002b25565b630000253f57630000168363000003eb82546300002a38565b7f73686170654d6f76650000000000000000000000000000000000000000000012905582548481101563000025505780600163000016c5920185556300002b25565b630000253f5763000016de63000003eb82546300002a38565b7f756e646f4d75746174696f6e000000000000000000000000000000000000001890558254848110156300002550578060016300001720920185556300002b25565b630000253f57630000173963000003eb82546300002a38565b827f72657475726e546f50726576696f757356657273696f6e000000000000000000019055825484811015630000255057806001630000177d920185556300002b25565b630000253f57630000179663000003eb82546300002a38565b817f73656564706f696e744d6f766552696768742d746f700000000000000000000001905582548481101563000025505780600163000017da920185556300002b25565b630000253f5763000017f363000003eb82546300002a38565b7f73656564706f696e744d6f76654c6566742d746f70000000000000000000002a90558254848110156300002550578060016300001835920185556300002b25565b630000253f57630000184e63000003eb82546300002a38565b7f73656564706f696e744d6f766555702d746f700000000000000000000000002690558254848110156300002550578060016300001890920185556300002b25565b630000253f5763000018a963000003eb82546300002a38565b7f73656564706f696e744d6f7665446f776e2d746f70000000000000000000002a905582548481101563000025505780600163000018eb920185556300002b25565b630000253f57630000190463000003eb82546300002a38565b7f73656564706f696e744368616e6765437572766543656e7465722d746f70003c90558254848110156300002550578060016300001946920185556300002b25565b630000253f57630000195f63000003eb82546300002a38565b7f73656564706f696e74496e637265617365436f6e6361766974792d746f70003c905582548481101563000025505780600163000019a1920185556300002b25565b630000253f5763000019ba63000003eb82546300002a38565b7f73656564706f696e744465637265617365436f6e6361766974792d746f70003c905582548481101563000025505780600163000019fc920185556300002b25565b630000253f576300001a1563000003eb82546300002a38565b7f73656564706f696e74496e6372656173655261646975732d746f70000000003690558254848110156300002550578060016300001a57920185556300002b25565b630000253f576300001a7063000003eb82546300002a38565b7f73656564706f696e7444656372656173655261646975732d746f70000000003690558254848110156300002550578060016300001ab2920185556300002b25565b630000253f576300001acb63000003eb82546300002a38565b7f73656564706f696e744d6f766552696768742d626f74746f6d0000000000003290558254848110156300002550578060016300001b0d920185556300002b25565b630000253f576300001b2663000003eb82546300002a38565b7f73656564706f696e744d6f76654c6566742d626f74746f6d000000000000003090558254848110156300002550578060016300001b68920185556300002b25565b630000253f576300001b8163000003eb82546300002a38565b817f73656564706f696e744d6f766555702d626f74746f6d000000000000000000000190558254848110156300002550578060016300001bc5920185556300002b25565b630000253f576300001bde63000003eb82546300002a38565b7f73656564706f696e744d6f7665446f776e2d626f74746f6d000000000000003090558254848110156300002550578060016300001c20920185556300002b25565b630000253f576300001c416300001c3982546300002a38565b826300002ac3565b6043815585526001602086207f73656564706f696e744368616e6765437572766543656e7465722d626f74746f8155606d60f81b91829101558354858110156300002573578060016300001c99920186556300002b25565b6300002562576300001cb26300001c3982546300002a38565b604381558652806001602088207f73656564706f696e74496e637265617365436f6e6361766974792d626f74746f815501558354858110156300002573578060016300001d03920186556300002b25565b6300002562576300001d1c6300001c3982546300002a38565b6043815586526001602087207f73656564706f696e744465637265617365436f6e6361766974792d626f74746f815501558254848110156300002550578060016300001d6c920185556300002b25565b630000253f576300001d8563000003eb82546300002a38565b7f73656564706f696e74496e6372656173655261646975732d626f74746f6d003c90558254848110156300002550578060016300001dc7920185556300002b25565b630000253f576300001de063000003eb82546300002a38565b7f73656564706f696e7444656372656173655261646975732d626f74746f6d003c90558254848110156300002550578060016300001e22920185556300002b25565b630000253f576300001e3b63000003eb82546300002a38565b827f73656564706f696e744d6f766552696768742d6c6566740000000000000000000190558254848110156300002550578060016300001e7f920185556300002b25565b630000253f576300001e9863000003eb82546300002a38565b817f73656564706f696e744d6f76654c6566742d6c656674000000000000000000000190558254848110156300002550578060016300001edc920185556300002b25565b630000253f576300001ef563000003eb82546300002a38565b7f73656564706f696e744d6f766555702d6c65667400000000000000000000002890558254848110156300002550578060016300001f37920185556300002b25565b919091630000253f576300001f5363000013bf83546300002a38565b7f73656564706f696e744d6f7665446f776e2d6c65667400000000000000000000019055815483811015630000252d578060016300001f96920184556300002b25565b63000024e6576300001faf63000003eb82546300002a38565b7f73656564706f696e744368616e6765437572766543656e7465722d6c6566743e9055815483811015630000252d578060016300001ff1920184556300002b25565b63000024e657630000200a63000003eb82546300002a38565b7f73656564706f696e74496e637265617365436f6e6361766974792d6c6566743e9055815483811015630000252d57806001630000204c920184556300002b25565b63000024e657630000206563000003eb82546300002a38565b7f73656564706f696e744465637265617365436f6e6361766974792d6c6566743e9055815483811015630000252d5780600163000020a7920184556300002b25565b63000024e65763000020c063000003eb82546300002a38565b7f73656564706f696e74496e6372656173655261646975732d6c656674000000389055815483811015630000252d578060016300002102920184556300002b25565b63000024e657630000211b63000003eb82546300002a38565b7f73656564706f696e7444656372656173655261646975732d6c656674000000389055815483811015630000252d57806001630000215d920184556300002b25565b63000024e657630000217663000003eb82546300002a38565b7f73656564706f696e744d6f766552696768742d726967687400000000000000309055815483811015630000252d5780600163000021b8920184556300002b25565b63000024e65763000021d163000003eb82546300002a38565b817f73656564706f696e744d6f76654c6566742d7269676874000000000000000000019055815483811015630000252d578060016300002215920184556300002b25565b63000024e657630000222e63000003eb82546300002a38565b7f73656564706f696e744d6f766555702d7269676874000000000000000000002a9055815483811015630000252d578060016300002270920184556300002b25565b91909163000024e657630000228c63000013bf83546300002a38565b7f73656564706f696e744d6f7665446f776e2d7269676874000000000000000000019055805482811015630000251a5780600163000022cf920183556300002b25565b63000025085763000022f063000022e882546300002a38565b826300002af4565b60419081815584527f73656564706f696e744368616e6765437572766543656e7465722d7269676874602085205581548381101563000024f757806001630000233d920184556300002b25565b63000024e657630000235663000022e882546300002a38565b81815584527f73656564706f696e74496e637265617365436f6e6361766974792d7269676874602085205581548381101563000024f75780600163000023a0920184556300002b25565b63000024e65763000023b963000022e882546300002a38565b81815584527f73656564706f696e744465637265617365436f6e6361766974792d7269676874602085205581548381101563000024f7578060016300002403920184556300002b25565b63000024e657630000241c63000003eb82546300002a38565b7f73656564706f696e74496e6372656173655261646975732d726967687400003a905581549283101563000024d65750600182019055630000245f906300002b25565b93909363000024c757505050630000247e63000003eb82546300002a38565b7f73656564706f696e7444656372656173655261646975732d726967687400003a90555161575f90816300002b59823960805181818161057b015281816118a501526126e70152f35b634e487b7160e01b8252819052fd5b634e487b7160e01b845285525050fd5b634e487b7160e01b85528487528585fd5b50634e487b7160e01b845285525050fd5b5050634e487b7160e01b825250808352fd5b5050634e487b7160e01b82525060418352fd5b634e487b7160e01b8552604187528585fd5b634e487b7160e01b86528588528686fd5b634e487b7160e01b8652604188528686fd5b634e487b7160e01b87528689528787fd5b634e487b7160e01b8752604189528787fd5b634e487b7160e01b8852878a528888fd5b634e487b7160e01b885260418a528888fd5b634e487b7160e01b8952888b528989fd5b634e487b7160e01b895260418b528989fd5b634e487b7160e01b8552848752602485fd5b634e487b7160e01b855260418752602485fd5b6001906020878551169401938184015501630000036d565b601b875263000026309060008051602063000082b88339815191529081019084016300002a78565b386300000355565b634e487b7160e01b865260418852602486fd5b875162461bcd60e51b8152602081890152601e60248201527f4d7573742070726f766964652073746f726167652061646472657373657300006044820152606490fd5b80518051906001600160401b03821163000027cc5763000026b185546300002a38565b601f81116300002787575b50602090601f831160011463000027105792826001949360209386958d926300002703575b5050600019600383901b1c191690841b1786555b019301910190916300000302565b01519050388063000026e1565b90858a5260208a20918a5b601f1985168110630000276d575083602093600196938796938794601f198116106300002752575b505050811b01865563000026f5565b015160001960f88460031b161c191690553880806300002743565b91926020600181928685015181550194019201630000271b565b63000027b890868b5260208b20601f850160051c8101916020861063000027c0575b601f0160051c01906300002a78565b3863000026bc565b909150819063000027a9565b634e487b7160e01b895260418b52602489fd5b634e487b7160e01b875260418952602487fd5b8551631e4fbdf760e01b8152808601849052602490fd5b01519050388063000001a0565b6001875260008051602063000082d88339815191529250601f198416875b81811063000028795750908460019594939210630000285e575b505050811b0160015563000001b6565b015160001960f88460031b161c19169055388080630000284e565b929360206001819287860151815501950193016300002834565b6001875263000028d19060008051602063000082d8833981519152601f850160051c8101916020861063000027c057601f0160051c01906300002a78565b386300000186565b0151905038806300000142565b878052602088209250601f198416885b818110630000293a5750908460019594939210630000291f575b505050811b0184556300000157565b015160001960f88460031b161c191690553880806300002910565b9293602060018192878601518155019501930163000028f6565b63000029849088805260208920601f850160051c8101916020861063000027c057601f0160051c01906300002a78565b386300000128565b604187634e487b7160e01b6000525260246000fd5b6020809163000029b2846300002a22565b8152019101906300000098565b600080fd5b634e487b7160e01b600052604160045260246000fd5b60408051919082016001600160401b0381118382101763000029c457604052565b6040519190601f01601f191682016001600160401b0381118382101763000029c457604052565b51906001600160a01b038216820363000029bf57565b90600182811c921680156300002a6c575b60208310146300002a5657565b634e487b7160e01b600052602260045260246000fd5b91607f16916300002a49565b8181106300002a85575050565b600081556001016300002a78565b90601f81116300002aa2575050565b6300002ac191600052601f6020600020910160051c8101906300002a78565b565b90601f81116300002ad2575050565b6300002ac1916000526002601f6020600020920160051c820191016300002a78565b90601f81116300002b03575050565b6300002ac1916000526001601f6020600020920160051c820191016300002a78565b6029548110156300002b4257602960005260206000200190600090565b634e487b7160e01b600052603260045260246000fdfe6080604081815260049182361015610022575b505050361561002057600080fd5b005b600092833560e01c9182629c4c7e146134025750816301ffc9a71461337757816306fdde03146132cf5781630739ac06146132b257816307488ccd14613062578163081812fc14613026578163095ea7b314612f4957816309aaa61e1461055e5781630ac6fc5814612ee75781630b0998ff14612e9c5781630f2cdd6c14612e80578163131f3a1e146125b0578163149e7b7714612e49578163161860d614612e215781631630881214612b3a57816318160ddd14612afb57816323b872dd14612ae3578163269557bb14612ac457816327189ca0146126b057816329777c35146126935781632a55205a146126165781632b49d425146125b557816332cb6b0c146125b05781633a602b4d146125785781633ccfd60b146124bd57816341ec68701461245957816342842e0e1461242a578163467f67f91461240c57816349c657db146123ef5781634e474dd9146123c65781634f64b2be1461239457816355f804b3146121e65781635ef46bc5146120fd5781635fa951a714611ed35781636352211e14611ea25781636aa71d1814611e6a5781636b04a1e214611d9c5781636b351c8714611d5e5781636c0360eb14611cc657816370a0823114611ca057816370a6f23014611c40578163715018a614611be35781637e056b9114611891578163817697b11461176f57816385c639fe1461174657816386e2d5df146117285781638da5cb5b146116ff5781638dc251e31461164e578163954058251461161057816395d89b411461152d5781639a617d0c146114125781639fbc8713146113e9578163a22cb46514611341578163a6194bd414611300578163aaffbe38146112d7578163afb7bed914610ea5578163afe21c2914610b91578163b0b5489514610b72578163b3a41b2614610b49578163b6fd462214610963578163b88d4fde146108f1578163c83d07e3146108bc578163c87b56dd14610884578163cbe60e9c1461082f578163ccad22de146106b4578163cdc3cc411461068b578163d088650a1461066c578163d9759f9a14610650578163e985e9c514610602578163e9b35361146105c5578163eb91d37e1461059e578163ecda10f514610563578163ed8ed9211461055e578163ede6fade14610542578163f2fde38b146104b7578163fb22e6511461044157508063fe660dc614610423578063fefafa08146103b55763ff9830bd146103965780610012565b346103b157816003193601126103b157602090516101f48152f35b5080fd5b8234610420576020366003190112610420576103cf613466565b6103d7613938565b601180546001600160a01b039283166001600160a01b0319821681179092559091167f4629afddec912ec503dd73bdff4ed7d1ddff82665cc12234d2050e12f518e5ed8380a380f35b80fd5b50346103b157816003193601126103b1576020906026549051908152f35b919050346104b35760203660031901126104b35760a09260ff916001600160a01b039181908361046f613466565b1681526020805220936003850154940154918151948552838316151560208601528260081c1690840152818160a81c161515606084015260b01c1615156080820152f35b8280fd5b9050346104b35760203660031901126104b3576104d2613466565b906104db613938565b6001600160a01b0391821692831561052c575050600654826001600160601b0360a01b821617600655167f8be0079c531659141344cd1fd0a4f28419497f9722a3daafe3b4186f6b6457e08380a380f35b51631e4fbdf760e01b8152908101849052602490fd5b5050346103b157816003193601126103b15760209051601e8152f35b613497565b5050346103b157816003193601126103b157602090517f00000000000000000000000000000000000000000000000000000000000000008152f35b5050346103b157816003193601126103b1576020906105be602254613e32565b9051908152f35b5050346103b157816003193601126103b1576060906105e2614920565b835192151583526001600160a01b03909116602083015291810191909152f35b5050346103b157806003193601126103b15760ff81602093610622613466565b61062a613481565b6001600160a01b0391821683526005875283832091168252855220549151911615158152f35b5050346103b157816003193601126103b1576020905160648152f35b5050346103b157816003193601126103b157602090600f549051908152f35b5050346103b157816003193601126103b15760255490516001600160a01b039091168152602090f35b8383346103b1576106c4366135c8565b6106cc613dc8565b6106d582613b3f565b336001600160a01b03909116036107fa576106f76106f28261532d565b614575565b61070082614704565b156107c157818452602c60205262015180420483852055601e60205261072a8184862054846151c6565b828552601e602052610757848620855190610744826134e6565b84825283602083015242878301526145b9565b828552601e602052838520546000198101949085116107ae57906107a37f4226f74e56624aaf998322a4bb5ebb847b5811ac4711df2f3d9b46d7a8f4a3e99392519283924291846138a8565b0390a3600160075580f35b634e487b7160e01b865260118752602486fd5b825162461bcd60e51b8152602081870152601360248201527243616e6e6f74206d757461746520746f64617960681b6044820152606490fd5b825162461bcd60e51b8152602081870152600f60248201526e2737ba103a37b5b2b71037bbb732b960891b6044820152606490fd5b5050346103b15736600319011261042057610848613466565b610850613481565b610858613938565b60018060a01b0390816001600160601b0360a01b931683602a541617602a551690602b541617602b5580f35b82843461042057602036600319011261042057506108a56108b89235614975565b9051918291602083526020830190613441565b0390f35b9050346104b35760203660031901126104b357359160295483101561042057506108a56108eb6108b893613901565b9061377f565b8390346103b15760803660031901126103b15761090c613466565b610914613481565b604435906064356001600160401b03811161095f573660238201121561095f5761095c9481602461094a93369301359101613573565b9261095683838361399d565b33613baa565b80f35b8580fd5b919050346104b35760209081600319360112610b4557823560ff811680820361095f57600361099a91610994613dc8565b10613fa6565b338552828052818520906003820154916109b5831515613fe8565b858101928354966109c960ff891615614029565b60ff8860a81c16610af457610ce48201809211610ae15750916109f9916109f4600194421115614075565b6140b3565b90549060031b1c9460ff19161790556001600160601b0360a01b60255416602555836026554260245533845260288252428185205560278252808420610a3f8154613eca565b90558360225492601f841480610ad7575b610ace575b610a5e84613eca565b6022558251610a6c816134b5565b8581526001828201428152868552601d84528585209251835551910155610a9384336140c3565b825194855284015242908301527f35a71fd4ad36d3b5f42a9819d12284ac3592b91d09f274e2ff1639a4418c1a0260603393a3600160075580f35b42602355610a55565b5060235415610a50565b634e487b7160e01b895260119052602488fd5b855162461bcd60e51b8152908101879052602560248201527f55736520636f6d706c6574654f776e65724d696e7420666f72206f776e6572206044820152646d696e747360d81b6064820152608490fd5b8380fd5b5050346103b157816003193601126103b157602a5490516001600160a01b039091168152602090f35b5050346103b157816003193601126103b157602090516312cc03008152f35b8383346103b157816003193601126103b1576012546001600160a01b03163303610e635760ff60165460081c1615610e295760ff60185416610df4576017546202a3008101809111610de1574211610d9f57610bee60135461361d565b926001600160401b038411610d8c5750610c0960105461361d565b601f8111610d45575b508192601f8111600114610c99578083947fa621c5ad256761fd9191d8547f07ec26026684c11c01ce72024c5e8ca59252419491610c8d575b508160011b916000199060031b1c1916176010555b600160ff196018541617601855610c7561564a565b516020815280610c8760208201613657565b0390a180f35b90506013015485610c4b565b6010835260008051602061570a83398151915293601f198216845b818110610d1f57509482916001937fa621c5ad256761fd9191d8547f07ec26026684c11c01ce72024c5e8ca5925241969710610cf8575b5050811b01601055610c60565b6000805160206156ea833981519152015460001960f88460031b161c191690558580610ceb565b6000805160206156ea833981519152830154875560019687019690920191602001610cb4565b610d7c906010845260008051602061570a833981519152601f860160051c81019160208710610d82575b601f0160051c019061437e565b83610c12565b9091508190610d6f565b634e487b7160e01b835260419052602482fd5b5162461bcd60e51b8152602081840181905260248201527f50726f706f73616c2065787069726564202d2077696e646f7720636c6f7365646044820152606490fd5b634e487b7160e01b835260118452602483fd5b5162461bcd60e51b8152602081840152601060248201526f105b1c9958591e48195e1958dd5d195960821b6044820152606490fd5b5162461bcd60e51b81526020818401526015602482015274151a1c995cda1bdb19081b9bdd081c995858da1959605a1b6044820152606490fd5b5162461bcd60e51b8152602081840152601960248201527f4f6e6c792070726f706f7365722063616e20636f6e6669726d000000000000006044820152606490fd5b9050826003193601126104b35760608251610ebf816134e6565b369037610eca613dc8565b60225491601e83111561129457610ee56103e7841115613cc6565b6025546001600160a01b031615801561126a575b610f0290613d2a565b33845260209360278552600a82822054101561123057338152602885528181205493620151809485810180911161121d5742106111e15760249485549081018091116111cf57421061119457610f5790613e32565b341061115c573381528480528181209360ff94858582015416908115611130575b50156110f65750815192610f8b846134e6565b6060368537815b8581166003811015610fc35790610fbe91610fb8610fb1834233615167565b9188613d87565b52613d76565b610f92565b848685858b845190610fd482613501565b84825280820191428352868101938585526060820191338352608081019487865260a08201948886523389528080528a89209251895b600381106110e45760608c6110e28f8e8e8e8e8e6110418f8f8f5160038201550194511515859060ff801983541691151516179055565b51835492519151610100600160b81b031990931660089190911b610100600160a81b03161790151560a81b60ff60a81b161790151560b01b60ff60b01b16179055602580546001600160a01b03191633179055426026558151906110a582866137e0565b428683015260808201527fc904c26edfa19014321dad8ce50a657782d9f55cd41af2afd9737e4f2ec7630760a03392a260016007555180926137e0565bf35b8151858201559082019060010161100a565b8360166064928886519362461bcd60e51b85528401528201527550656e64696e6720726571756573742065786973747360501b6044820152fd5b600391500154610ce4810180911161114a57421138610f78565b50634e487b7160e01b82526011845290fd5b5060649284601492519362461bcd60e51b855284015282015273125b9cdd59999a58da595b9d081c185e5b595b9d60621b6044820152fd5b825162461bcd60e51b815280850187905260168187015275476c6f62616c20636f6f6c646f776e2061637469766560501b6044820152606490fd5b634e487b7160e01b8352601185528583fd5b825162461bcd60e51b8152808501879052601660248201527557616c6c657420636f6f6c646f776e2061637469766560501b6044820152606490fd5b634e487b7160e01b835260118552602483fd5b815162461bcd60e51b8152808401869052601460248201527315d85b1b195d081b1a5b5a5d081c995858da195960621b6044820152606490fd5b50602654610ce48101809111611281574211610ef9565b634e487b7160e01b855260118352602485fd5b906020606492519162461bcd60e51b8352820152601860248201527f4f776e6572206d696e7420706572696f642061637469766500000000000000006044820152fd5b5050346103b157816003193601126103b157602b5490516001600160a01b039091168152602090f35b9050346104b35760203660031901126104b3573591601a54831015610420575061132b6020926138ca565b905491519160018060a01b039160031b1c168152f35b919050346104b357806003193601126104b35761135c613466565b906024358015159283820361095f576001600160a01b03169384156113d257506113a59033865260056020528286208587526020528286209060ff801983541691151516179055565b519081527f17307eab39ab6107e8899845ad3d59bd9653f200f220920489ca2b5937696c3160203392a380f35b8251630b61174360e31b8152908101859052602490fd5b5050346103b157816003193601126103b157600e5490516001600160a01b039091168152602090f35b839150346103b157602090816003193601126104b357919091358152601e825282812090815461144181614909565b9061144e86519283613537565b8082528482018094845285842084915b8383106114dc57505050508451938085019181865251809252858501868360051b8701019493965b8388106114935786860387f35b90919293948380600192603f198a820301865288519085806114bd84516060808652850190613441565b9385810151868501520151910152970193019701969093929193611486565b6003886001928b9a97989a516114f1816134e6565b8c5161150881611501818a6136e9565b0382613537565b8152848601548382015260028601548d8201528152019201920191909694939661145e565b5050346103b157816003193601126103b1578051908260018054916115518361361d565b808652928281169081156115e8575060011461158c575b50505061157a826108b8940383613537565b51918291602083526020830190613441565b94508085527fb10e2d527612073b26eecdfd717e6a320cf44b4afac2b0732d9fcbe2b7fa0cf65b8286106115d05750505061157a8260206108b89582010194611568565b805460208787018101919091529095019481016115b3565b6108b897508693506020925061157a94915060ff191682840152151560051b82010194611568565b839150346103b15760203660031901126103b157359060068210156104205782516108b8908461157a8261164781600889016136e9565b0383613537565b9050346104b35760203660031901126104b357611669613466565b611671613938565b6001600160a01b03169182156116bc575050600e80546001600160a01b031916821790557fc3696c23bd17454d95c44cb489c7a0db717d6d809e238813932720cc785ad5358280a280f35b906020606492519162461bcd60e51b8352820152601860248201527f496e76616c6964207265636569766572206164647265737300000000000000006044820152fd5b5050346103b157816003193601126103b15760065490516001600160a01b039091168152602090f35b5050346103b157816003193601126103b157602090516202a3008152f35b828434610420576020366003190112610420575061176660209235614704565b90519015158152f35b9050346104b35760209081600319360112610b455761178c613466565b8460a0855161179a81613501565b86516117a5816134e6565b6060368237815282868201528287820152826060820152826080820152015260018060a01b038091168552828052838520938051926117e384613501565b815195868198905b6003821061187c5750506101009750611803876134e6565b86855260038101549585019586520154938184019060ff8616151582526118556060860193858860081c16855260ff60a06080890198828b60a81c1615158a52019860b01c16151588525180986137e0565b5160608701525115156080860152511660a084015251151560c083015251151560e0820152f35b60018881928c548152019a01910190986117eb565b9050346104b357826003193601126104b3577f00000000000000000000000000000000000000000000000000000000000000006312cc03008101809111611bd0576118de904210156155bd565b60145415611b995760ff60185416611b57576016549160ff8360081c16158015611b3e575b15611b085761191133613964565b9161191d831515615609565b3385526020936019855260ff8387205416611ad65760ff811615611a90575b5033855260198452818520805460ff19166001179055601a54600160401b811015611a7d578060016119719201601a556138ca565b81549060031b9033821b9160018060a01b03901b191617905561199683601554613d07565b928360155582519081527fa36cc2bebb74db33e9f88110a07ef56e1b31b24b4c4f51b54b1664266e29f45b853392a2602254600019810191908211611a6a57604382029180830460431490151715611a6a57506016549260ff8460081c16159182611a5b575b5050611a06578380f35b7fab69f06083afef0927640d007ea64293cf51d456c47ce52131e28ec5dd1366cf92610100611a4b9361ff001916176016554260175581519282849384528301613657565b9042908301520390a13880808380f35b606491925004111538806119fc565b634e487b7160e01b865260119052602485fd5b634e487b7160e01b865260418252602486fd5b60ff191660011760165581518481527f8e409ff344f734c68d4e8a0f3acc9412ba807ede50cd1ea7263c6902f826819d9080611acd878201613657565b0390a13861193c565b5083606492519162461bcd60e51b8352820152600d60248201526c105b1c9958591e481d9bdd1959609a1b6044820152fd5b906020606492519162461bcd60e51b8352820152601060248201526f141c9bdc1bdcd85b08195e1c1a5c995960821b6044820152fd5b506017546202a300810180911161128157421115611903565b6020606492519162461bcd60e51b8352820152601960248201527f50726f706f73616c20616c7265616479206578656375746564000000000000006044820152fd5b6020606492519162461bcd60e51b83528201526012602482015271139bc81858dd1a5d99481c1c9bdc1bdcd85b60721b6044820152fd5b634e487b7160e01b845260118252602484fd5b8334610420578060031936011261042057611bfc613938565b600680546001600160a01b0319811690915581906001600160a01b03167f8be0079c531659141344cd1fd0a4f28419497f9722a3daafe3b4186f6b6457e08280a380f35b5050346103b157611c50366137ca565b908352601e6020528183208054821015610b455790611c6e9161388c565b50906108b8815191611c8b83611c8481876136e9565b0384613537565b600260018501549401549051938493846138a8565b5050346103b15760203660031901126103b1576020906105be611cc1613466565b613964565b5050346103b157816003193601126103b15780519082601054611ce88161361d565b808552916001918083169081156115e85750600114611d135750505061157a826108b8940383613537565b94506010855260008051602061570a8339815191525b828610611d465750505061157a8260206108b89582010194611568565b80546020878701810191909152909501948101611d29565b5050346103b15760203660031901126103b15760209160ff9082906001600160a01b03611d89613466565b1681526019855220541690519015158152f35b8383346103b157602092836003193601126104b3578151611dbc81613501565b84845b60c08110611e5c57505050358252601f835280822090805191611de183613501565b8385845b60068310611e375750505050519183830184845260e084019291945b60068610611e0f5784840385f35b9091928180611e2a600193601f198982030187528751613441565b9501930195019490611e01565b60019182918651611e4c81611501818a6136e9565b8152019301910190918690611de5565b606081840152018590611dbf565b5050346103b15760203660031901126103b15760209181906001600160a01b03611e92613466565b1681526028845220549051908152f35b8284346104205760203660031901126104205750611ec260209235613b3f565b90516001600160a01b039091168152f35b9050346104b357602080600319360112610b4557813560ff811680820361095f576003611f0a91611f02613938565b610994613dc8565b33855281805283852093600385015491611f25831515613fe8565b84860195865493611f3960ff861615614029565b60ff8560a81c16156120ba57610ce481018091116120a757906109f4611f629392421115614075565b90549060031b1c9260018060a01b038360081c1695600160ff8560b01c169460ff19161790556001600160601b0360a01b6025541660255586602655602494428655602254956001871461209e575b611fba87613eca565b602255848451611fc9816134b5565b87815260018582014281528a8d52601d8752878d20925183555191015561203a575b505050906107a37f35a71fd4ad36d3b5f42a9819d12284ac3592b91d09f274e2ff1639a4418c1a02939261201f86886140c3565b51928352901515602083015242604083015281906060820190565b885b6006811061204a5750611feb565b338a526021845261205d81868c206135f7565b50888b52601f855261207182878d206135f7565b61208d57612088929161208391614499565b613eca565b61203c565b634e487b7160e01b8c528b8552838cfd5b42602355611fb1565b634e487b7160e01b895260118752602489fd5b835162461bcd60e51b8152808801879052601960248201527f4e6f7420616e206f776e6572206d696e742072657175657374000000000000006044820152606490fd5b82843461042057806003193601126104205760295461211b81614909565b9161212884519384613537565b8183526029815260209283810192827fcb7c14ce178f56e2e8d86ab33ebc0ae081ba8556a00cd122038841867181caac855b8383106121bb57505050508451938085019181865251809252858501958260051b8601019392955b82871061218f5785850386f35b9091929382806121ab600193603f198a82030186528851613441565b9601920196019592919092612182565b60018881928b9a97989a516121d48161150181896136e9565b8152019201920191909694939661215a565b839150346103b157602092836003193601126104b3576001600160401b0382358181116123905761221a90369085016135aa565b92612223613938565b835191821161237d575061223860105461361d565b601f8111612342575b5084601f82116001146122ae579181610c87928697947feec356c13f485b7acbb74166d776fb50be80220a12df460b84716109009f999497916122a3575b508160011b916000199060031b1c1916176010555b51928284938452830190613441565b90508501518861227f565b6010855260008051602061570a83398151915290601f198316865b81811061232b5750927feec356c13f485b7acbb74166d776fb50be80220a12df460b84716109009f99949697949260019282610c879610612312575b5050811b01601055612294565b87015160001960f88460031b161c191690558880612305565b91928860018192868a0151815501940192016122c9565b612377906010865260008051602061570a833981519152601f840160051c810191888510610d8257601f0160051c019061437e565b85612241565b634e487b7160e01b855260419052602484fd5b8480fd5b9050346104b35760203660031901126104b357918192358152601d602052206001815491015482519182526020820152f35b5050346103b157816003193601126103b15760115490516001600160a01b039091168152602090f35b5050346103b157816003193601126103b157602090516101f48152f35b5050346103b157816003193601126103b1576020905162278d008152f35b5050346103b15761095c9061243e36613808565b9192519261244b8461351c565b85845261095683838361399d565b8284346104205780600319360112610420575060018060a01b0360125416906108b860145492601554906016546017549160ff60185416938651966124a8886124a181613657565b0389613537565b5197889760ff808660081c169516938961383d565b919050346104b357826003193601126104b3576124d8613938565b47801561253e5760065484918291829182916001600160a01b03165af16124fd613b7a565b5015612507578280f35b906020606492519162461bcd60e51b8352820152601160248201527015da5d1a191c985dd85b0819985a5b1959607a1b6044820152fd5b815162461bcd60e51b815260208185015260146024820152734e6f2066756e647320746f20776974686472617760601b6044820152606490fd5b5050346103b15760203660031901126103b15760209181906001600160a01b036125a0613466565b1681526027845220549051908152f35b6137ad565b8284346104205780600319360112610420575060125481516001600160a01b03909116916108b8906125ea83611c8481613657565b6014549360155490601654906017549260ff60185416945197889760ff808660081c169516938961383d565b8383346103b157612626366137ca565b90835260026020528183205490926001600160a01b039161264a90831615156146c1565b6101f49384810294818604149015171561268057600e5483519083166001600160a01b0316815261271085046020820152604090f35b634e487b7160e01b815260118552602490fd5b5050346103b157816003193601126103b15760209051610ce48152f35b8383346103b157602090816003193601126104b3576001600160401b03938035858111612390576126e490369083016135aa565b907f00000000000000000000000000000000000000000000000000000000000000006312cc03008101809111612ab157612720904210156155bd565b61273361272c33613964565b1515615609565b815115612a785760165460ff8160081c169081612a5e575b60ff16158015612a57575b15612a1457600f5462278d008101809111612a015742106129be576129b1575b825161010081018181108882111761299e578452338152828582015283810142815260608201878152608083019088825260a084019289845260e060c08601958b875201958a8752336001600160601b0360a01b601254161760125587519b8c1161298b57506127e760135461361d565b8b601f821161294f575b5050889a601f81116001146128b657908161289c989796959493928c9d7fc3dcab762d52a4a2d2507dd9e3436141e746eb3ba927c89698773a6f24a745649c9d916128ab575b508160011b916000199060031b1c1916176013555b51601455516015555115159060ff61ff006016549251151560081b1692169061ffff191617176016555160175551151560ff80196018541691161760185542600f55825192808452830190613441565b9242908201528033930390a280f35b90508801518e612837565b60138b526000805160206156ea833981519152601f1982168c5b8181106129385750916001917fc3dcab762d52a4a2d2507dd9e3436141e746eb3ba927c89698773a6f24a745649c9d9e8261289c9c9b9a99989796951061291f575b5050811b0160135561284c565b8a015160001960f88460031b161c191690558e80612912565b8a8f015183559d8c019d6001909201918c016128d0565b6129849160138d526000805160206156ea833981519152908c601f840160051c83019310610d8257601f0160051c019061437e565b8b8b6127f1565b634e487b7160e01b8b526041905260248afd5b634e487b7160e01b875260418352602487fd5b6129b961564a565b612776565b835162461bcd60e51b8152808301869052601860248201527f50726f706f73616c20636f6f6c646f776e2061637469766500000000000000006044820152606490fd5b634e487b7160e01b875260118352602487fd5b835162461bcd60e51b8152808301869052601b60248201527f4163746976652070726f706f73616c20696e2070726f677265737300000000006044820152606490fd5b5080612756565b90506017546202a3008101809111612a015742119061274b565b825162461bcd60e51b815290810184905260136024820152725552492063616e6e6f7420626520656d70747960681b6044820152606490fd5b634e487b7160e01b865260118252602486fd5b5050346103b157816003193601126103b1576020906023549051908152f35b83346104205761095c612af536613808565b9161399d565b8383346103b157816003193601126103b157602254600019810192908311612b27576020838351908152f35b634e487b7160e01b815260118452602490fd5b90508234610420578260031936011261042057612b55613466565b6024356001600160401b0381116104b3578084019060c4369101116104b3578451612b7f816134e6565b60608091369037612b8e613938565b612b96613dc8565b612ba66103e76022541115613cc6565b6025546001600160a01b0396908716158015612e0a575b612bc690613d2a565b612bcf836142c8565b905015159687612dcd575b815195612be6876134e6565b83368837805b60ff81166003811015612c185790612c1391610fb8612c0c83428c615167565b918b613d87565b612bec565b505091949296909397855194612c2d86613501565b878652602092838701428152888801928684528b890197169687815260808901926001998a855260a0810193878552338a528880528c8a2091518c8b5b60038110612dbb5750505090612c9892915160038201550194511515859060ff801983541691151516179055565b51835492519151610100600160b81b031990931660089190911b610100600160a81b03161790151560a81b60ff60a81b161790151560b01b60ff60b01b16179055612d7b575b5050906110e29291336001600160601b0360a01b6025541617602555426026558251612d0a81876137e0565b42878201528260808201527fc904c26edfa19014321dad8ce50a657782d9f55cd41af2afd9737e4f2ec7630760a03392a27f436cc48c6334b1dbe3160d3c717634aef61ee2db2f2065919b65b47d8d43d03360808451612d6a81896137e0565b4289820152a26007555180926137e0565b815b60068110612d8b5750612cde565b80612083612d9c612db6938c6142fc565b9033875260218652612db0848b89206135f7565b906143d1565b612d7d565b8b835193019281860155018d90612c6a565b855b60068110612ddd5750612bda565b80612083612e00612dfb612df4612e05958a6142fc565b3691613573565b61521f565b61433e565b612dcf565b50602654610ce481018091116107ae574211612bbd565b9050346104b35760203660031901126104b3576020928291358152602c845220549051908152f35b5050346103b157612e59366137ca565b92908152601f60205281812090600684101561042057506108eb6108b8936108a5926135f7565b5050346103b157816003193601126103b15760209051600a8152f35b5050346103b157806003193601126103b157612eb6613466565b6001600160a01b03168252602160205280822060243592600684101561042057506108eb6108b8936108a5926135f7565b8383346103b157612ef7366135c8565b612eff613938565b612f07613dc8565b818452600260205282842054612f27906001600160a01b031615156146c1565b612f336106f28261532d565b818452601e60205261072a8184862054846151c6565b919050346104b357806003193601126104b357612f64613466565b91602435612f7181613b3f565b33151580613013575b80612fea575b612fd4576001600160a01b039485169482918691167f8c5be1e5ebec7d5bd14f71427d1e84f3dd0314c0f7b2291e5b200ac8c7c3b9258880a48452602052822080546001600160a01b031916909117905580f35b835163a9fbf51f60e01b81523381850152602490fd5b506001600160a01b03811686526005602090815284872033885290528386205460ff1615612f80565b506001600160a01b038116331415612f7a565b9050346104b35760203660031901126104b35791826020933561304881613b3f565b50825283528190205490516001600160a01b039091168152f35b8383346103b15760603660031901126103b15761307d613466565b602435936001600160401b038511610b45578481019460c436910111610b4557604435916130a9613938565b6130b1613dc8565b602254926130c36103e7851115613cc6565b8015613249576025546001600160a01b0393908416158015613219575b6130ea9150613d2a565b6130f3876142c8565b9050151594856131ea575b42602455600185146131e1575b61311485613eca565b6022558051613122816134b5565b828152866020916001838201428152898c52601d8552858c20925183555191015561319a575b5082916107a39161317b877f35a71fd4ad36d3b5f42a9819d12284ac3592b91d09f274e2ff1639a4418c1a0297966140c3565b5190815295151560208701524260408701529116939081906060820190565b879891985b600681106131b05750889150613148565b806120838a89612db084889f6131ca6131d998829b6142fc565b9590948152601f8a52206135f7565b98919861319f565b4260235561310b565b87875b600681106131fc5750506130fe565b612083612e00612dfb612df484613212966142fc565b88906131ed565b5060265490610ce4820180921161323657506130ea9042116130e0565b634e487b7160e01b885260119052602487fd5b845162461bcd60e51b8152602081850152603d60248201527f437573746f6d2073656564207265717569726564202d2075736520726571756560448201527f73744f776e65724d696e7420666f7220332d6f7074696f6e20666c6f770000006064820152608490fd5b5050346103b157816003193601126103b157602090516102ee8152f35b5050346103b157816003193601126103b1578051908280546132f08161361d565b808552916001918083169081156115e8575060011461331b5750505061157a826108b8940383613537565b80809650527f290decd9548b62a8d60345a988386fc84ba6bc95484008f6362f93160ef3e5635b82861061335f5750505061157a8260206108b89582010194611568565b80546020878701810191909152909501948101613342565b9050346104b35760203660031901126104b357359063ffffffff60e01b82168092036104b3576020925063152a902d60e11b82149182156133bc575b50519015158152f35b9091506380ac58cd60e01b81149081156133f1575b81156133e0575b5090386133b3565b6301ffc9a760e01b149050386133d8565b635b5e139f60e01b811491506133d1565b8490346103b157816003193601126103b1576020906024548152f35b60005b8381106134315750506000910152565b8181015183820152602001613421565b9060209161345a8151809281855285808601910161341e565b601f01601f1916010190565b600435906001600160a01b038216820361347c57565b600080fd5b602435906001600160a01b038216820361347c57565b3461347c57600036600319011261347c576020604051620151808152f35b604081019081106001600160401b038211176134d057604052565b634e487b7160e01b600052604160045260246000fd5b606081019081106001600160401b038211176134d057604052565b60c081019081106001600160401b038211176134d057604052565b602081019081106001600160401b038211176134d057604052565b90601f801991011681019081106001600160401b038211176134d057604052565b6001600160401b0381116134d057601f01601f191660200190565b92919261357f82613558565b9161358d6040519384613537565b82948184528183011161347c578281602093846000960137010152565b9080601f8301121561347c578160206135c593359101613573565b90565b90604060031983011261347c5760043591602435906001600160401b03821161347c576135c5916004016135aa565b6006821015613607570190600090565b634e487b7160e01b600052603260045260246000fd5b90600182811c9216801561364d575b602083101461363757565b634e487b7160e01b600052602260045260246000fd5b91607f169161362c565b601354600092916136678261361d565b808252916001908181169081156136cc575060011461368557505050565b9192935060136000526000805160206156ea833981519152916000925b8484106136b457505060209250010190565b805460208585018101919091529093019281016136a2565b915050602093945060ff929192191683830152151560051b010190565b90600092918054916136fa8361361d565b91828252600193848116908160001461375c575060011461371c575b50505050565b90919394506000526020928360002092846000945b838610613748575050505001019038808080613716565b805485870183015294019385908201613731565b9294505050602093945060ff191683830152151560051b01019038808080613716565b90613797576135c561150191604051928380926136e9565b634e487b7160e01b600052600060045260246000fd5b3461347c57600036600319011261347c5760206040516103e78152f35b604090600319011261347c576004359060243590565b6000915b600383106137f157505050565b6001908251815260208091019201920191906137e4565b606090600319011261347c576001600160a01b0390600435828116810361347c5791602435908116810361347c579060443590565b96939060e09693999895926138679160018060a01b031689526101008060208b0152890190613441565b986040880152606087015215156080860152151560a085015260c08401521515910152565b8054821015613607576000526003602060002091020190600090565b6138c060409295949395606083526060830190613441565b9460208201520152565b601a5481101561360757601a6000527f057c384a7d1c54f3a1b2e5e67b2617b8224fdfd1ea7234eea573a6ff665ff63e0190600090565b6029548110156136075760296000527fcb7c14ce178f56e2e8d86ab33ebc0ae081ba8556a00cd122038841867181caac0190600090565b6006546001600160a01b0316330361394c57565b60405163118cdaa760e01b8152336004820152602490fd5b6001600160a01b0316801561398457600052600360205260406000205490565b6040516322718ad960e21b815260006004820152602490fd5b6001600160a01b039182169290918315613b2657600092828452826020956002875260409684888820541696879133151580613a8d575b509060027fddf252ad1be2c89b69c2b068fc378daa952ba7f163c4a11628f55a4df523b3ef9284613a5a575b858352600381528b8320805460010190558683525289812080546001600160a01b0319168517905580a41692838303613a395750505050565b6064945051926364283d7b60e01b8452600484015260248301526044820152fd5b600087815260046020526040902080546001600160a01b0319169055848352600381528b83208054600019019055613a00565b91939450915080613ae5575b15613aa9578592918791386139d4565b878688613ac6576024915190637e27328960e01b82526004820152fd5b905163177e802f60e01b81523360048201526024810191909152604490fd5b503387148015613b0a575b80613a995750858252600481523385898420541614613a99565b5086825260058152878220338352815260ff8883205416613af0565b604051633250574960e11b815260006004820152602490fd5b6000818152600260205260409020546001600160a01b0316908115613b62575090565b60249060405190637e27328960e01b82526004820152fd5b3d15613ba5573d90613b8b82613558565b91613b996040519384613537565b82523d6000602084013e565b606090565b9293823b613bba575b5050505050565b613bfe9060018060a01b038094169560405194859481630a85bd0160e11b988988521660048701521660248501526044840152608060648401526084830190613441565b03906020816000938185885af190829082613c7e575b5050613c4c5782613c23613b7a565b8051919082613c4557604051633250574960e11b815260048101839052602490fd5b6020915001fd5b6001600160e01b03191603613c6657503880808080613bb3565b60249060405190633250574960e11b82526004820152fd5b909192506020813d8211613cbe575b81613c9a60209383613537565b810103126103b15751906001600160e01b0319821682036104205750903880613c14565b3d9150613c8d565b15613ccd57565b60405162461bcd60e51b815260206004820152601260248201527113585e081cdd5c1c1b1e481c995858da195960721b6044820152606490fd5b91908201809211613d1457565b634e487b7160e01b600052601160045260246000fd5b15613d3157565b60405162461bcd60e51b815260206004820152601a60248201527f4d696e742073656c656374696f6e20696e2070726f67726573730000000000006044820152606490fd5b60ff1660ff8114613d145760010190565b9060038110156136075760051b0190565b90670de0b6b3a764000091828102928184041490151715613d1457565b81810292918115918404141715613d1457565b600260075414613dd9576002600755565b604051633ee5aeb560e01b8152600490fd5b91908203918211613d1457565b8015613e12576ec097ce7bc90715b34b9f10000000000490565b634e487b7160e01b600052601260045260246000fd5b8115613e12570490565b601e811115613eb357601d198101908111613d14578015613ea7576103c980821015613e985767867d5927a64f800080830292830503613d1457613e769105613ed9565b6615f4ad60b640009080820291820403613d1457670de0b6b3a7640000900490565b505068056bc75e2d6310000090565b506615f4ad60b6400090565b50600090565b600160ff1b8114613d145760000390565b6000198114613d145760010190565b680755bf798b4a1bf1e5811215613f725760008112613f5857670de0b6b3a764000090600190825b6014831115613f11575b50505090565b613f30613f2183613f3793613db5565b613f2a85613d98565b90613e28565b8094613d07565b9160648410613f5057613f4990613eca565b9192613f01565b829350613f0b565b613f64613f6991613eb9565b613ed9565b6135c590613df8565b60405162461bcd60e51b815260206004820152600c60248201526b657870206f766572666c6f7760a01b6044820152606490fd5b15613fad57565b60405162461bcd60e51b8152602060048201526013602482015272496e76616c696420736565642063686f69636560681b6044820152606490fd5b15613fef57565b60405162461bcd60e51b8152602060048201526012602482015271139bc81c195b991a5b99c81c995c5d595cdd60721b6044820152606490fd5b1561403057565b60405162461bcd60e51b815260206004820152601960248201527f5265717565737420616c726561647920636f6d706c65746564000000000000006044820152606490fd5b1561407c57565b60405162461bcd60e51b815260206004820152600f60248201526e14995c5d595cdd08195e1c1a5c9959608a1b6044820152606490fd5b6003821015613607570190600090565b60408051926140d18461351c565b60008085526001600160a01b03948486169485156142b0578383526020966002885285842054168487821515928361427d575b81875260038b528887208054600101905582875260028b5288872080546001600160a01b031916831790557fddf252ad1be2c89b69c2b068fc378daa952ba7f163c4a11628f55a4df523b3ef8780a4614265573b614165575b505050505050565b856141a29185969798955180938192630a85bd0160e11b978884523360048501528760248501526044840152608060648401526084830190613441565b0381858a5af190829082614221575b50506141e9575050506141c2613b7a565b80519390846141e3578251633250574960e11b815260048101859052602490fd5b84925001fd5b9194506001600160e01b03199091160361420a57505038808080808061415d565b602492505190633250574960e11b82526004820152fd5b909192508781813d831161425e575b61423a8183613537565b810103126103b15751906001600160e01b03198216820361042057509038806141b1565b503d614230565b84516339e3563760e11b815260048101849052602490fd5b600083815260046020526040902080546001600160a01b031916905580875260038b528887208054600019019055614104565b8451633250574960e11b815260048101849052602490fd5b803590601e198136030182121561347c5701908135916001600160401b03831161347c57602001823603811361347c579190565b9060068110156136075760051b81013590601e198136030182121561347c5701908135916001600160401b03831161347c57602001823603811361347c579190565b1561434557565b60405162461bcd60e51b815260206004820152601160248201527024b73b30b634b2103432bc1031b7b637b960791b6044820152606490fd5b818110614389575050565b6000815560010161437e565b9190601f81116143a457505050565b6143cf926000526020600020906020601f840160051c83019310610d8257601f0160051c019061437e565b565b91939290613797576001600160401b0381116134d0576143fb816143f5845461361d565b84614395565b6000601f8211600114614435578192939460009261442a575b50508160011b916000199060031b1c1916179055565b013590503880614414565b601f198216948382526020918281209281905b88821061448157505083600195969710614467575b505050811b019055565b0135600019600384901b60f8161c1916905538808061445d565b80600184968294958701358155019501920190614448565b90808214614571576144ab815461361d565b906001600160401b0382116134d05781906144d0826144ca865461361d565b86614395565b600090601f8311600114614506576000926144fb5750508160011b916000199060031b1c1916179055565b015490503880614414565b81526020808220858352818320935090601f1985169083905b82821061455857505090846001959493921061453f57505050811b019055565b015460001960f88460031b161c1916905538808061445d565b849581929585015481556001809101960194019061451f565b5050565b1561457c57565b60405162461bcd60e51b8152602060048201526015602482015274496e76616c6964206d75746174696f6e207479706560581b6044820152606490fd5b908154600160401b8110156134d0576145d990600193848201815561388c565b9290926137975781518051906001600160401b0382116134d05761460782614601875461361d565b87614395565b602090601f8311600114614656579180604094926002969460009261464b575b5050600019600383901b1c191690821b1785555b6020820151908501550151910155565b015190503880614627565b90601f1983169186600052816000209260005b8181106146ab5750928593928592600298966040989510614692575b505050811b01855561463b565b015160001960f88460031b161c19169055388080614685565b8284015185559386019360209384019301614669565b156146c857565b60405162461bcd60e51b8152602060048201526014602482015273151bdad95b88191bd95cc81b9bdd08195e1a5cdd60621b6044820152606490fd5b60008181526002602052604081205490919061472a906001600160a01b031615156146c1565b808252601d602052602060408320600160405191614747836134b5565b8054835201549182910152620151808042049104811461478357818352602c60205260408320541461477f576135c591504290614788565b5090565b505090565b906000918252601d6020818152604092838520938051936147a8856134b5565b85548552836001809701549501948552602254948686116148ce575b6147cf905184615389565b61487757606485116148a4575b6101f4808611614881575b506102ee808611614843575b506103e7809511614808575b50505050505090565b614830948752835284818720915191614820836134b5565b8054835201549283910152615389565b61483e5780808080806147ff565b905090565b875280845261486d848389208885519161485c836134b5565b805483520154918291015284615389565b61487757386147f3565b5050505050905090565b875280845261489a848389208885519161485c836134b5565b61487757386147e7565b606487528084526148bf848389208885519161485c836134b5565b156147dc575050505050905090565b8688528185526148f985848a20898651916148e8836134b5565b805483520154918291015285615389565b156147c457505050505050905090565b6001600160401b0381116134d05760051b60200190565b6025546001600160a01b03168015158061495d575b6149455750600090600090600090565b9060265490610ce48201809211613d14576001929190565b50602654610ce48101809111613d1457421115614935565b6000908082526020916002835260409161499b60018060a01b03848420541615156146c1565b6010546149a78161361d565b614e3657509282614dcb614d52614d6d84614ba5603d97614e049a6135c59a51906149d1826134b5565b60188252614bd460c6868401937f68747470733a2f2f6170692e73706174746572732e61727400000000000000008552614a0a84615024565b948c89614a1687615024565b92614a2088615024565b94614a2a89615024565b93519b8c968488019b717b226e616d65223a2253706174746572202360701b8d52614a5e815180928860328d01910161341e565b61088b60f21b6032918a019182018190527f226465736372697074696f6e223a2246756c6c79206f6e2d636861696e20676560348301527f6e657261746976652061727420776974682074696d652d6261736564206d7574605483015268185d1a5bdb9ccb888b60ba1b6074830152681134b6b0b3b2911d1160b91b607d8301528451909891614af282608683018961341e565b01662f696d6167652f60c81b6086820152614b168251809389608d8501910161341e565b01650b9c1b99c88b60d21b608d820152701130b734b6b0ba34b7b72fbab936111d1160791b6093820152835190614b518260a483018861341e565b01614b77662f746f6b656e2f60c81b968760a4840152835193849160ab8501910161341e565b01918660ab8401526f1132bc3a32b93730b62fbab936111d1160811b60ad84015251809360bd84019061341e565b019060bd820152614bbf825180938d60c48501910161341e565b019060c48201520360a6810187520185613537565b808352601f8552614be78984205461361d565b1515908352601e8552614bfc89842054615024565b925015614e1457614d618851614c11816134b5565b600381526259657360e81b86820152915b614d4160ad8b518095898201976d2261747472696275746573223a5b60901b89527f7b2274726169745f74797065223a224d75746174696f6e73222c2276616c7565602e84015261111d60f11b604e840152614c87815180928d60508701910161341e565b8201611f4b60f21b60508201527f7b2274726169745f74797065223a22437573746f6d2050616c65747465222c226052820152673b30b63ab2911d1160c11b6072820152614cde825180938d607a8501910161341e565b0162089f4b60ea1b607a8201527f7b2274726169745f74797065223a2247656e65726174696f6e222c2276616c75607d8201526d65223a224f6e2d436861696e227d60901b609d820152615d7d60f01b60ab82015203608d810186520184613537565b89519788955180928888019061341e565b8401915180938684019061341e565b01038084520182613537565b825190614d79826134e6565b8382527f4142434445464748494a4b4c4d4e4f505152535455565758595a616263646566858301527f6768696a6b6c6d6e6f707172737475767778797a303132333435363738392b2f84830152614f2c565b905194827f646174613a6170706c69636174696f6e2f6a736f6e3b6261736536342c00000087948501528251928391868601910161341e565b810103601d810184520182613537565b614d618851614e22816134b5565b60028152614e6f60f01b8682015291614c22565b919390614e4290615024565b925193849281614e518261361d565b91600190818116908115614ed95750600114614e8d575b505050614e7e84826135c596519485920161341e565b0103601f198101835282613537565b90919592506010825260008051602061570a8339815191525b868310614ec357505050614e7e826135c595850101919438614e68565b8054888401860152879550918401918101614ea6565b60ff19168787015250505080151502830182019050614e7e6135c538614e68565b90614f0482613558565b614f116040519182613537565b8281528092614f22601f1991613558565b0190602036910137565b80511561500f578051600291828201809211613d14576003918290046001600160fe1b0381168103613d1457614f65908495941b614efa565b936020850193829183518401906020820192835194600085525b838110614fbe575050505052510680600114614fab57600214614fa0575090565b603d90600019015390565b50603d9081600019820153600119015390565b87600491999293949901918251600190603f9082828260121c16880101518453828282600c1c16880101518385015382828260061c1688010151888501531685010151898201530197929190614f7f565b505060405161501d8161351c565b6000815290565b806000917a184f03e93ff9f4daa797ed6e38ed64bf6a1f01000000000000000080821015615159575b506d04ee2d6d415b85acef81000000008083101561514a575b50662386f26fc100008083101561513b575b506305f5e1008083101561512c575b506127108083101561511d575b50606482101561510d575b600a80921015615103575b6001908160216150bb828701614efa565b95860101905b6150cd575b5050505090565b600019019083906f181899199a1a9b1b9c1cb0b131b232b360811b8282061a8353049182156150fe579190826150c1565b6150c6565b91600101916150aa565b919060646002910491019161509f565b60049193920491019138615094565b60089193920491019138615087565b60109193920491019138615078565b60209193920491019138615066565b60409350810491503861504d565b916022546040519260208401946001600160601b03199060601b1685526034840152446054840152607483015260ff60f81b9060f81b1660948201526075815260a081018181106001600160401b038211176134d05760405251902090565b919060b461521991604051938491602083019687523360601b604084015260548301526151fd81518092602060748601910161341e565b8101426074820152446094820152036094810184520182613537565b51902090565b8051906007918281036153255715613607576020818101516001600160f81b03199290831660dd60f81b0161531c5760015b848110615262575050505050600190565b8151811015615307578383828401015116600360fc1b81101590816152f8575b81156152d4575b81156152ae575b50156152a45761529f90613eca565b615251565b5050505050600090565b604160f81b8110159150816152c5575b5038615290565b602360f91b10159050386152be565b9050606160f81b811015806152ea575b90615289565b50603360f91b8111156152e4565b603960f81b8111159150615282565b60246000634e487b7160e01b81526032600452fd5b50505050600090565b505050600090565b6029549060005b82811061534357505050600090565b61150161535f61535283613901565b50604051928380926136e9565b805160208092012090835190840120146153815761537c90613eca565b615334565b505050600190565b61539561539b916153c0565b916153c0565b602082015160208201511491826153b157505090565b60409192508101519101511490565b906201518060409283516153d3816134e6565b60009481868093528260208201520152046107b2905b6153f2826154b8565b156154ad5761ffff61016e5b16908181106154205761541a9161541491613deb565b91613eca565b906153e9565b9293919260019150829082905b600c841115615456575b50505060405192615447846134e6565b83526020830152604082015290565b61546386859394956154e1565b90818110615480576154789161541491613deb565b92919061542d565b9392919450508201809211615499575090388080615437565b634e487b7160e01b81526011600452602490fd5b61ffff61016d6153fe565b60038116613eb357606481066154db5761019090066154d657600190565b600090565b50600190565b6001811480156155b3575b80156155a9575b801561559f575b8015615595575b801561558b575b8015615581575b61557a57600481148015615570575b8015615566575b801561555c575b6155555760021461553d5750600090565b615546906154b8565b1561555057601d90565b601c90565b5050601e90565b50600b811461552c565b5060098114615525565b506006811461551e565b5050601f90565b50600c811461550f565b50600a8114615508565b5060088114615501565b50600781146154fa565b50600581146154f3565b50600381146154ec565b156155c457565b60405162461bcd60e51b815260206004820152601960248201527f476f7665726e616e6365206e6f742061637469766520796574000000000000006044820152606490fd5b1561561057565b60405162461bcd60e51b815260206004820152601260248201527126bab9ba1037bbb710309029b830ba3a32b960711b6044820152606490fd5b60005b601a548110156156965780615664615691926138ca565b905460039190911b1c6001600160a01b03166000908152601960205260409020805460ff19169055613eca565b61564d565b50601a546000601a55806156a75750565b601a6000527f057c384a7d1c54f3a1b2e5e67b2617b8224fdfd1ea7234eea573a6ff665ff63e908101905b8181106156dd575050565b600081556001016156d256fe66de8ffda797e3de9c05e8fc57b3bf0ec28a930d40b0d285d93c06501cf6a0901b6847dc741a1b0cd08d278845f9d819d87b734759afb55fe2de5cb82a9ae672a2646970667358221220508e5dec3576429a7ad891bf30e71338ab4d2c7acfa7d4d52a6c8762c274440c64736f6c634300081400333ad8aa4f87544323a9d1e5dd902f40c356527a7955687113db5f9a85ad579dc1b10e2d527612073b26eecdfd717e6a320cf44b4afac2b0732d9fcbe2b7fa0cf6",
  "linkReferences": {},
  "deployedLinkReferences": {}
}