{
  "_format": "hh3-artifact-1",
  "contractName": "Spatters",
  "sourceName": "contracts/Spatters.sol",
  "abi": [
    {
      "inputs": [],
      "stateMutability": "nonpayable",
      "type": "constructor"
    },
    {
      "inputs": [
        {
          "internalType": "address",
          "name": "sender",
          "type": "address"
        },
        {
          "internalType": "uint256",
          "name": "tokenId",
          "type": "uint256"
        },
        {
          "internalType": "address",
          "name": "owner",
          "type": "address"
        }
      ],
      "name": "ERC721IncorrectOwner",
      "type": "error"
    },
    {
      "inputs": [
        {
          "internalType": "address",
          "name": "operator",
          "type": "address"
        },
        {
          "internalType": "uint256",
          "name": "tokenId",
          "type": "uint256"
        }
      ],
      "name": "ERC721InsufficientApproval",
      "type": "error"
    },
    {
      "inputs": [
        {
          "internalType": "address",
          "name": "approver",
          "type": "address"
        }
      ],
      "name": "ERC721InvalidApprover",
      "type": "error"
    },
    {
      "inputs": [
        {
          "internalType": "address",
          "name": "operator",
          "type": "address"
        }
      ],
      "name": "ERC721InvalidOperator",
      "type": "error"
    },
    {
      "inputs": [
        {
          "internalType": "address",
          "name": "owner",
          "type": "address"
        }
      ],
      "name": "ERC721InvalidOwner",
      "type": "error"
    },
    {
      "inputs": [
        {
          "internalType": "address",
          "name": "receiver",
          "type": "address"
        }
      ],
      "name": "ERC721InvalidReceiver",
      "type": "error"
    },
    {
      "inputs": [
        {
          "internalType": "address",
          "name": "sender",
          "type": "address"
        }
      ],
      "name": "ERC721InvalidSender",
      "type": "error"
    },
    {
      "inputs": [
        {
          "internalType": "uint256",
          "name": "tokenId",
          "type": "uint256"
        }
      ],
      "name": "ERC721NonexistentToken",
      "type": "error"
    },
    {
      "inputs": [
        {
          "internalType": "address",
          "name": "owner",
          "type": "address"
        }
      ],
      "name": "OwnableInvalidOwner",
      "type": "error"
    },
    {
      "inputs": [
        {
          "internalType": "address",
          "name": "account",
          "type": "address"
        }
      ],
      "name": "OwnableUnauthorizedAccount",
      "type": "error"
    },
    {
      "inputs": [],
      "name": "ReentrancyGuardReentrantCall",
      "type": "error"
    },
    {
      "anonymous": false,
      "inputs": [
        {
          "indexed": true,
          "internalType": "address",
          "name": "owner",
          "type": "address"
        },
        {
          "indexed": true,
          "internalType": "address",
          "name": "approved",
          "type": "address"
        },
        {
          "indexed": true,
          "internalType": "uint256",
          "name": "tokenId",
          "type": "uint256"
        }
      ],
      "name": "Approval",
      "type": "event"
    },
    {
      "anonymous": false,
      "inputs": [
        {
          "indexed": true,
          "internalType": "address",
          "name": "owner",
          "type": "address"
        },
        {
          "indexed": true,
          "internalType": "address",
          "name": "operator",
          "type": "address"
        },
        {
          "indexed": false,
          "internalType": "bool",
          "name": "approved",
          "type": "bool"
        }
      ],
      "name": "ApprovalForAll",
      "type": "event"
    },
    {
      "anonymous": false,
      "inputs": [
        {
          "indexed": true,
          "internalType": "uint256",
          "name": "tokenId",
          "type": "uint256"
        },
        {
          "indexed": true,
          "internalType": "address",
          "name": "minter",
          "type": "address"
        },
        {
          "indexed": false,
          "internalType": "string",
          "name": "initialMetadata",
          "type": "string"
        },
        {
          "indexed": false,
          "internalType": "bytes32",
          "name": "seed",
          "type": "bytes32"
        }
      ],
      "name": "Minted",
      "type": "event"
    },
    {
      "anonymous": false,
      "inputs": [
        {
          "indexed": true,
          "internalType": "uint256",
          "name": "tokenId",
          "type": "uint256"
        },
        {
          "indexed": true,
          "internalType": "uint256",
          "name": "mutationIndex",
          "type": "uint256"
        },
        {
          "indexed": false,
          "internalType": "string",
          "name": "mutationType",
          "type": "string"
        },
        {
          "indexed": false,
          "internalType": "string",
          "name": "fullMetadata",
          "type": "string"
        },
        {
          "indexed": false,
          "internalType": "bytes32",
          "name": "seed",
          "type": "bytes32"
        },
        {
          "indexed": false,
          "internalType": "uint256",
          "name": "timestamp",
          "type": "uint256"
        }
      ],
      "name": "Mutated",
      "type": "event"
    },
    {
      "anonymous": false,
      "inputs": [
        {
          "indexed": true,
          "internalType": "address",
          "name": "previousOwner",
          "type": "address"
        },
        {
          "indexed": true,
          "internalType": "address",
          "name": "newOwner",
          "type": "address"
        }
      ],
      "name": "OwnershipTransferred",
      "type": "event"
    },
    {
      "anonymous": false,
      "inputs": [
        {
          "indexed": true,
          "internalType": "address",
          "name": "from",
          "type": "address"
        },
        {
          "indexed": true,
          "internalType": "address",
          "name": "to",
          "type": "address"
        },
        {
          "indexed": true,
          "internalType": "uint256",
          "name": "tokenId",
          "type": "uint256"
        }
      ],
      "name": "Transfer",
      "type": "event"
    },
    {
      "inputs": [],
      "name": "COOLDOWN_PERIOD",
      "outputs": [
        {
          "internalType": "uint256",
          "name": "",
          "type": "uint256"
        }
      ],
      "stateMutability": "view",
      "type": "function"
    },
    {
      "inputs": [],
      "name": "MAX_METADATA_LENGTH",
      "outputs": [
        {
          "internalType": "uint256",
          "name": "",
          "type": "uint256"
        }
      ],
      "stateMutability": "view",
      "type": "function"
    },
    {
      "inputs": [],
      "name": "MAX_PER_TRANSACTION",
      "outputs": [
        {
          "internalType": "uint256",
          "name": "",
          "type": "uint256"
        }
      ],
      "stateMutability": "view",
      "type": "function"
    },
    {
      "inputs": [],
      "name": "MAX_PER_WALLET",
      "outputs": [
        {
          "internalType": "uint256",
          "name": "",
          "type": "uint256"
        }
      ],
      "stateMutability": "view",
      "type": "function"
    },
    {
      "inputs": [],
      "name": "MAX_SUPPLY",
      "outputs": [
        {
          "internalType": "uint256",
          "name": "",
          "type": "uint256"
        }
      ],
      "stateMutability": "view",
      "type": "function"
    },
    {
      "inputs": [],
      "name": "OWNER_RESERVE",
      "outputs": [
        {
          "internalType": "uint256",
          "name": "",
          "type": "uint256"
        }
      ],
      "stateMutability": "view",
      "type": "function"
    },
    {
      "inputs": [
        {
          "internalType": "address",
          "name": "to",
          "type": "address"
        },
        {
          "internalType": "uint256",
          "name": "tokenId",
          "type": "uint256"
        }
      ],
      "name": "approve",
      "outputs": [],
      "stateMutability": "nonpayable",
      "type": "function"
    },
    {
      "inputs": [
        {
          "internalType": "address",
          "name": "owner",
          "type": "address"
        }
      ],
      "name": "balanceOf",
      "outputs": [
        {
          "internalType": "uint256",
          "name": "",
          "type": "uint256"
        }
      ],
      "stateMutability": "view",
      "type": "function"
    },
    {
      "inputs": [
        {
          "internalType": "uint256",
          "name": "tokenId",
          "type": "uint256"
        }
      ],
      "name": "canMutate",
      "outputs": [
        {
          "internalType": "bool",
          "name": "",
          "type": "bool"
        }
      ],
      "stateMutability": "view",
      "type": "function"
    },
    {
      "inputs": [],
      "name": "collectionLaunchDate",
      "outputs": [
        {
          "internalType": "uint256",
          "name": "",
          "type": "uint256"
        }
      ],
      "stateMutability": "view",
      "type": "function"
    },
    {
      "inputs": [
        {
          "internalType": "uint256",
          "name": "tokenId",
          "type": "uint256"
        }
      ],
      "name": "getApproved",
      "outputs": [
        {
          "internalType": "address",
          "name": "",
          "type": "address"
        }
      ],
      "stateMutability": "view",
      "type": "function"
    },
    {
      "inputs": [],
      "name": "getContractBalance",
      "outputs": [
        {
          "internalType": "uint256",
          "name": "",
          "type": "uint256"
        }
      ],
      "stateMutability": "view",
      "type": "function"
    },
    {
      "inputs": [],
      "name": "getMintPrice",
      "outputs": [
        {
          "internalType": "uint256",
          "name": "",
          "type": "uint256"
        }
      ],
      "stateMutability": "view",
      "type": "function"
    },
    {
      "inputs": [
        {
          "internalType": "uint256",
          "name": "tokenId",
          "type": "uint256"
        }
      ],
      "name": "getTokenMetadata",
      "outputs": [
        {
          "internalType": "string",
          "name": "",
          "type": "string"
        }
      ],
      "stateMutability": "view",
      "type": "function"
    },
    {
      "inputs": [
        {
          "internalType": "address",
          "name": "owner",
          "type": "address"
        },
        {
          "internalType": "address",
          "name": "operator",
          "type": "address"
        }
      ],
      "name": "isApprovedForAll",
      "outputs": [
        {
          "internalType": "bool",
          "name": "",
          "type": "bool"
        }
      ],
      "stateMutability": "view",
      "type": "function"
    },
    {
      "inputs": [
        {
          "internalType": "address",
          "name": "",
          "type": "address"
        }
      ],
      "name": "lastMintTime",
      "outputs": [
        {
          "internalType": "uint256",
          "name": "",
          "type": "uint256"
        }
      ],
      "stateMutability": "view",
      "type": "function"
    },
    {
      "inputs": [
        {
          "internalType": "string",
          "name": "metadata",
          "type": "string"
        }
      ],
      "name": "mint",
      "outputs": [],
      "stateMutability": "payable",
      "type": "function"
    },
    {
      "inputs": [
        {
          "internalType": "address",
          "name": "",
          "type": "address"
        }
      ],
      "name": "mintedPerWallet",
      "outputs": [
        {
          "internalType": "uint256",
          "name": "",
          "type": "uint256"
        }
      ],
      "stateMutability": "view",
      "type": "function"
    },
    {
      "inputs": [
        {
          "internalType": "uint256",
          "name": "tokenId",
          "type": "uint256"
        },
        {
          "internalType": "string",
          "name": "mutationType",
          "type": "string"
        },
        {
          "internalType": "string",
          "name": "newMetadata",
          "type": "string"
        }
      ],
      "name": "mutate",
      "outputs": [],
      "stateMutability": "nonpayable",
      "type": "function"
    },
    {
      "inputs": [],
      "name": "name",
      "outputs": [
        {
          "internalType": "string",
          "name": "",
          "type": "string"
        }
      ],
      "stateMutability": "view",
      "type": "function"
    },
    {
      "inputs": [],
      "name": "owner",
      "outputs": [
        {
          "internalType": "address",
          "name": "",
          "type": "address"
        }
      ],
      "stateMutability": "view",
      "type": "function"
    },
    {
      "inputs": [
        {
          "internalType": "address",
          "name": "to",
          "type": "address"
        },
        {
          "internalType": "string",
          "name": "metadata",
          "type": "string"
        }
      ],
      "name": "ownerMint",
      "outputs": [],
      "stateMutability": "nonpayable",
      "type": "function"
    },
    {
      "inputs": [
        {
          "internalType": "uint256",
          "name": "tokenId",
          "type": "uint256"
        }
      ],
      "name": "ownerOf",
      "outputs": [
        {
          "internalType": "address",
          "name": "",
          "type": "address"
        }
      ],
      "stateMutability": "view",
      "type": "function"
    },
    {
      "inputs": [],
      "name": "renounceOwnership",
      "outputs": [],
      "stateMutability": "nonpayable",
      "type": "function"
    },
    {
      "inputs": [
        {
          "internalType": "address",
          "name": "from",
          "type": "address"
        },
        {
          "internalType": "address",
          "name": "to",
          "type": "address"
        },
        {
          "internalType": "uint256",
          "name": "tokenId",
          "type": "uint256"
        }
      ],
      "name": "safeTransferFrom",
      "outputs": [],
      "stateMutability": "nonpayable",
      "type": "function"
    },
    {
      "inputs": [
        {
          "internalType": "address",
          "name": "from",
          "type": "address"
        },
        {
          "internalType": "address",
          "name": "to",
          "type": "address"
        },
        {
          "internalType": "uint256",
          "name": "tokenId",
          "type": "uint256"
        },
        {
          "internalType": "bytes",
          "name": "data",
          "type": "bytes"
        }
      ],
      "name": "safeTransferFrom",
      "outputs": [],
      "stateMutability": "nonpayable",
      "type": "function"
    },
    {
      "inputs": [
        {
          "internalType": "address",
          "name": "operator",
          "type": "address"
        },
        {
          "internalType": "bool",
          "name": "approved",
          "type": "bool"
        }
      ],
      "name": "setApprovalForAll",
      "outputs": [],
      "stateMutability": "nonpayable",
      "type": "function"
    },
    {
      "inputs": [
        {
          "internalType": "bytes4",
          "name": "interfaceId",
          "type": "bytes4"
        }
      ],
      "name": "supportsInterface",
      "outputs": [
        {
          "internalType": "bool",
          "name": "",
          "type": "bool"
        }
      ],
      "stateMutability": "view",
      "type": "function"
    },
    {
      "inputs": [],
      "name": "symbol",
      "outputs": [
        {
          "internalType": "string",
          "name": "",
          "type": "string"
        }
      ],
      "stateMutability": "view",
      "type": "function"
    },
    {
      "inputs": [
        {
          "internalType": "uint256",
          "name": "tokenId",
          "type": "uint256"
        }
      ],
      "name": "tokenURI",
      "outputs": [
        {
          "internalType": "string",
          "name": "",
          "type": "string"
        }
      ],
      "stateMutability": "view",
      "type": "function"
    },
    {
      "inputs": [
        {
          "internalType": "uint256",
          "name": "",
          "type": "uint256"
        }
      ],
      "name": "tokens",
      "outputs": [
        {
          "internalType": "string",
          "name": "currentMetadata",
          "type": "string"
        },
        {
          "internalType": "uint256",
          "name": "mintTimestamp",
          "type": "uint256"
        },
        {
          "internalType": "uint256",
          "name": "mutationCount",
          "type": "uint256"
        },
        {
          "internalType": "uint256",
          "name": "lastMutationDate",
          "type": "uint256"
        }
      ],
      "stateMutability": "view",
      "type": "function"
    },
    {
      "inputs": [],
      "name": "totalSupply",
      "outputs": [
        {
          "internalType": "uint256",
          "name": "",
          "type": "uint256"
        }
      ],
      "stateMutability": "view",
      "type": "function"
    },
    {
      "inputs": [
        {
          "internalType": "address",
          "name": "from",
          "type": "address"
        },
        {
          "internalType": "address",
          "name": "to",
          "type": "address"
        },
        {
          "internalType": "uint256",
          "name": "tokenId",
          "type": "uint256"
        }
      ],
      "name": "transferFrom",
      "outputs": [],
      "stateMutability": "nonpayable",
      "type": "function"
    },
    {
      "inputs": [
        {
          "internalType": "address",
          "name": "newOwner",
          "type": "address"
        }
      ],
      "name": "transferOwnership",
      "outputs": [],
      "stateMutability": "nonpayable",
      "type": "function"
    },
    {
      "inputs": [],
      "name": "withdraw",
      "outputs": [],
      "stateMutability": "nonpayable",
      "type": "function"
    }
  ],
  "bytecode": "0x6080604052600160095534801562000015575f80fd5b503360405180604001604052806008815260200167537061747465727360c01b8152506040518060400160405280600481526020016314d4105560e21b815250815f9081620000659190620001ad565b506001620000748282620001ad565b5050506001600160a01b038116620000a557604051631e4fbdf760e01b81525f600482015260240160405180910390fd5b620000b081620000bc565b50600160075562000275565b600680546001600160a01b038381166001600160a01b0319831681179093556040519116919082907f8be0079c531659141344cd1fd0a4f28419497f9722a3daafe3b4186f6b6457e0905f90a35050565b634e487b7160e01b5f52604160045260245ffd5b600181811c908216806200013657607f821691505b6020821081036200015557634e487b7160e01b5f52602260045260245ffd5b50919050565b601f821115620001a8575f81815260208120601f850160051c81016020861015620001835750805b601f850160051c820191505b81811015620001a4578281556001016200018f565b5050505b505050565b81516001600160401b03811115620001c957620001c96200010d565b620001e181620001da845462000121565b846200015b565b602080601f83116001811462000217575f8415620001ff5750858301515b5f19600386901b1c1916600185901b178555620001a4565b5f85815260208120601f198616915b82811015620002475788860151825594840194600190910190840162000226565b50858210156200026557878501515f19600388901b60f8161c191681555b5050505050600190811b01905550565b612fd480620002835f395ff3fe6080604052600436106101fc575f3560e01c80636aa71d1811610113578063a7f93ebd1161009d578063d85d3d271161006d578063d85d3d271461058f578063e8868e9f146105a2578063e985e9c5146105b7578063ede6fade146105d6578063f2fde38b146105ea575f80fd5b8063a7f93ebd14610529578063b88d4fde1461053d578063c87b56dd1461055c578063cb14eb871461057b575f80fd5b8063715018a6116100e3578063715018a6146104a657806385c639fe146104ba5780638da5cb5b146104d957806395d89b41146104f6578063a22cb4651461050a575f80fd5b80636aa71d18146104355780636e99d52f146104605780636f9fb98a1461047557806370a0823114610487575f80fd5b8063269557bb1161019457806341d5b8031161016457806341d5b8031461038a57806342842e0e146103a95780634f64b2be146103c857806360316801146103f75780636352211e14610416575f80fd5b8063269557bb1461032157806332cb6b0c146103365780633a602b4d1461034b5780633ccfd60b14610376575f80fd5b80630f2cdd6c116101cf5780630f2cdd6c146102ad57806316d4cca8146102cf57806318160ddd146102ee57806323b872dd14610302575f80fd5b806301ffc9a71461020057806306fdde0314610234578063081812fc14610255578063095ea7b31461028c575b5f80fd5b34801561020b575f80fd5b5061021f61021a36600461269b565b610609565b60405190151581526020015b60405180910390f35b34801561023f575f80fd5b5061024861065a565b60405161022b9190612703565b348015610260575f80fd5b5061027461026f366004612715565b6106e9565b6040516001600160a01b03909116815260200161022b565b348015610297575f80fd5b506102ab6102a6366004612747565b610710565b005b3480156102b8575f80fd5b506102c1600a81565b60405190815260200161022b565b3480156102da575f80fd5b506102ab6102e9366004612814565b61071f565b3480156102f9575f80fd5b506102c1610936565b34801561030d575f80fd5b506102ab61031c36600461287c565b61094b565b34801561032c575f80fd5b506102c1600a5481565b348015610341575f80fd5b506102c16103e781565b348015610356575f80fd5b506102c16103653660046128b5565b600b6020525f908152604090205481565b348015610381575f80fd5b506102ab6109d4565b348015610395575f80fd5b506102ab6103a43660046128ce565b610adb565b3480156103b4575f80fd5b506102ab6103c336600461287c565b610c44565b3480156103d3575f80fd5b506103e76103e2366004612715565b610c5e565b60405161022b9493929190612919565b348015610402575f80fd5b50610248610411366004612715565b610d0b565b348015610421575f80fd5b50610274610430366004612715565b610ddc565b348015610440575f80fd5b506102c161044f3660046128b5565b600c6020525f908152604090205481565b34801561046b575f80fd5b506102c1610e1081565b348015610480575f80fd5b50476102c1565b348015610492575f80fd5b506102c16104a13660046128b5565b610de6565b3480156104b1575f80fd5b506102ab610e2b565b3480156104c5575f80fd5b5061021f6104d4366004612715565b610e3c565b3480156104e4575f80fd5b506006546001600160a01b0316610274565b348015610501575f80fd5b5061024861102d565b348015610515575f80fd5b506102ab610524366004612947565b61103c565b348015610534575f80fd5b506102c1611047565b348015610548575f80fd5b506102ab610557366004612980565b611053565b348015610567575f80fd5b50610248610576366004612715565b61106b565b348015610586575f80fd5b506102c1600281565b6102ab61059d3660046129f7565b61110b565b3480156105ad575f80fd5b506102c161271081565b3480156105c2575f80fd5b5061021f6105d1366004612a29565b611481565b3480156105e1575f80fd5b506102c1601981565b3480156105f5575f80fd5b506102ab6106043660046128b5565b6114ae565b5f6001600160e01b031982166380ac58cd60e01b148061063957506001600160e01b03198216635b5e139f60e01b145b8061065457506301ffc9a760e01b6001600160e01b03198316145b92915050565b60605f805461066890612a5a565b80601f016020809104026020016040519081016040528092919081815260200182805461069490612a5a565b80156106df5780601f106106b6576101008083540402835291602001916106df565b820191905f5260205f20905b8154815290600101906020018083116106c257829003601f168201915b5050505050905090565b5f6106f3826114e8565b505f828152600460205260409020546001600160a01b0316610654565b61071b828233611520565b5050565b61072761152d565b3361073184610ddc565b6001600160a01b03161461077e5760405162461bcd60e51b815260206004820152600f60248201526e2737ba103a37b5b2b71037bbb732b960891b60448201526064015b60405180910390fd5b612710815111156107a15760405162461bcd60e51b815260040161077590612a92565b6107aa83610e3c565b6107ea5760405162461bcd60e51b815260206004820152601160248201527043616e6e6f74206d7574617465206e6f7760781b6044820152606401610775565b5f6107f86201518042612ae6565b5f858152600860205260409020600301549091508190036108535760405162461bcd60e51b8152602060048201526015602482015274416c7265616479206d75746174656420746f64617960581b6044820152606401610775565b5f84815260086020526040902061086a8382612b3e565b505f84815260086020526040812060020180549161088783612bfa565b90915550505f848152600860209081526040808320600381018590556002015490516108ba9233929142918a9101612c12565b60405160208183030381529060405280519060200120905060085f8681526020019081526020015f2060020154857f68dea02bbe3d9e45ff4af2487ba6966a9270cd364594bdbae3b3aa8a112515b38686854260405161091d9493929190612c41565b60405180910390a350506109316001600755565b505050565b5f60016009546109469190612c79565b905090565b6001600160a01b03821661097457604051633250574960e11b81525f6004820152602401610775565b5f610980838333611557565b9050836001600160a01b0316816001600160a01b0316146109ce576040516364283d7b60e01b81526001600160a01b0380861660048301526024820184905282166044820152606401610775565b50505050565b6109dc61164b565b6109e461152d565b4780610a2b5760405162461bcd60e51b81526020600482015260166024820152754e6f2062616c616e636520746f20776974686472617760501b6044820152606401610775565b5f610a3e6006546001600160a01b031690565b6001600160a01b0316826040515f6040518083038185875af1925050503d805f8114610a85576040519150601f19603f3d011682016040523d82523d5f602084013e610a8a565b606091505b5050905080610acd5760405162461bcd60e51b815260206004820152600f60248201526e151c985b9cd9995c8819985a5b1959608a1b6044820152606401610775565b5050610ad96001600755565b565b610ae361164b565b610aeb61152d565b60196009541115610b3e5760405162461bcd60e51b815260206004820152601760248201527f4f776e6572206d696e7420706572696f6420656e6465640000000000000000006044820152606401610775565b61271081511115610b615760405162461bcd60e51b815260040161077590612a92565b600980545f9182610b7183612bfa565b91905055905080600103610b845742600a555b5f818152600860205260409020610b9b8382612b3e565b505f8181526008602052604081204260018201556002810182905560030155610bc48382611678565b5f835f4284604051602001610bdc9493929190612c12565b604051602081830303815290604052805190602001209050836001600160a01b0316827f3d800b867b433b2e8240ce323693c9fa286158c369d66db0b047f69396b6c1c08584604051610c30929190612c8c565b60405180910390a3505061071b6001600755565b61093183838360405180602001604052805f815250611053565b60086020525f9081526040902080548190610c7890612a5a565b80601f0160208091040260200160405190810160405280929190818152602001828054610ca490612a5a565b8015610cef5780601f10610cc657610100808354040283529160200191610cef565b820191905f5260205f20905b815481529060010190602001808311610cd257829003601f168201915b5050505050908060010154908060020154908060030154905084565b5f818152600260205260409020546060906001600160a01b0316610d415760405162461bcd60e51b815260040161077590612cad565b5f8281526008602052604090208054610d5990612a5a565b80601f0160208091040260200160405190810160405280929190818152602001828054610d8590612a5a565b8015610dd05780601f10610da757610100808354040283529160200191610dd0565b820191905f5260205f20905b815481529060010190602001808311610db357829003601f168201915b50505050509050919050565b5f610654826114e8565b5f6001600160a01b038216610e10576040516322718ad960e21b81525f6004820152602401610775565b506001600160a01b03165f9081526003602052604090205490565b610e3361164b565b610ad95f611691565b5f818152600260205260408120546001600160a01b0316610e6f5760405162461bcd60e51b815260040161077590612cad565b5f82815260086020526040808220815160808101909252805482908290610e9590612a5a565b80601f0160208091040260200160405190810160405280929190818152602001828054610ec190612a5a565b8015610f0c5780601f10610ee357610100808354040283529160200191610f0c565b820191905f5260205f20905b815481529060010190602001808311610eef57829003601f168201915b5050509183525050600182015460208201526002820154604082015260039091015460609091015290505f610f446201518042612ae6565b905080826060015103610f5a57505f9392505050565b5f805f610f69855f01516116e2565b925092509250610f7d85602001514261174f565b15610f8f575060019695505050505050565b5f600a54118015610fa75750610fa7600a544261174f565b15610fb9575060019695505050505050565b5f610fc4848461178f565b9050610fd2428260016117cd565b15610fe557506001979650505050505050565b5f80610ff08461180d565b915091505f8211801561100957506110094283836117cd565b1561101e575060019998505050505050505050565b505f9998505050505050505050565b60606001805461066890612a5a565b61071b338383611875565b5f610946600954611913565b61105e84848461094b565b6109ce33858585856119d2565b5f818152600260205260409020546060906001600160a01b03166110a15760405162461bcd60e51b815260040161077590612cad565b5f6110ab83611afa565b5f8481526008602090815260409182902091516110ca93929101612cdb565b60405160208183030381529060405290506110e481611b8a565b6040516020016110f49190612e07565b604051602081830303815290604052915050919050565b61111361152d565b6019600954116111655760405162461bcd60e51b815260206004820152601760248201527f5075626c6963206d696e74206e6f7420737461727465640000000000000000006044820152606401610775565b6103e760095411156111ae5760405162461bcd60e51b815260206004820152601260248201527113585e081cdd5c1c1b1e481c995858da195960721b6044820152606401610775565b6111b6611047565b3410156111fc5760405162461bcd60e51b8152602060048201526014602482015273125b9cdd59999a58da595b9d081c185e5b595b9d60621b6044820152606401610775565b6127108151111561121f5760405162461bcd60e51b815260040161077590612a92565b335f908152600b6020526040902054600a116112765760405162461bcd60e51b815260206004820152601660248201527513585e081c195c881dd85b1b195d081c995858da195960521b6044820152606401610775565b335f908152600c602052604090205461129290610e1090612e4b565b4210156112d35760405162461bcd60e51b815260206004820152600f60248201526e436f6f6c646f776e2061637469766560881b6044820152606401610775565b600980545f91826112e383612bfa565b90915550335f908152600b6020526040812080549293509061130483612bfa565b9091555050335f908152600c60209081526040808320429055838352600890915290206113318382612b3e565b505f818152600860205260408120426001820155600281018290556003015561135a3382611678565b5f335f42846040516020016113729493929190612c12565b604051602081830303815290604052805190602001209050336001600160a01b0316827f3d800b867b433b2e8240ce323693c9fa286158c369d66db0b047f69396b6c1c085846040516113c6929190612c8c565b60405180910390a36113d6611047565b341115611472575f336113e7611047565b6113f19034612c79565b6040515f81818185875af1925050503d805f811461142a576040519150601f19603f3d011682016040523d82523d5f602084013e61142f565b606091505b50509050806114705760405162461bcd60e51b815260206004820152600d60248201526c1499599d5b990819985a5b1959609a1b6044820152606401610775565b505b505061147e6001600755565b50565b6001600160a01b039182165f90815260056020908152604080832093909416825291909152205460ff1690565b6114b661164b565b6001600160a01b0381166114df57604051631e4fbdf760e01b81525f6004820152602401610775565b61147e81611691565b5f818152600260205260408120546001600160a01b03168061065457604051637e27328960e01b815260048101849052602401610775565b6109318383836001611bb0565b60026007540361155057604051633ee5aeb560e01b815260040160405180910390fd5b6002600755565b5f828152600260205260408120546001600160a01b039081169083161561158357611583818486611cb4565b6001600160a01b038116156115bd5761159e5f855f80611bb0565b6001600160a01b0381165f90815260036020526040902080545f190190555b6001600160a01b038516156115eb576001600160a01b0385165f908152600360205260409020805460010190555b5f8481526002602052604080822080546001600160a01b0319166001600160a01b0389811691821790925591518793918516917fddf252ad1be2c89b69c2b068fc378daa952ba7f163c4a11628f55a4df523b3ef91a490505b9392505050565b6006546001600160a01b03163314610ad95760405163118cdaa760e01b8152336004820152602401610775565b61071b828260405180602001604052805f815250611d18565b600680546001600160a01b038381166001600160a01b0319831681179093556040519116919082907f8be0079c531659141344cd1fd0a4f28419497f9722a3daafe3b4186f6b6457e0905f90a35050565b5f805f808490506117128160405180604001604052806007815260200166636972636c657360c81b815250611d2f565b935061173b81604051806040016040528060058152602001646c696e657360d81b815250611d2f565b925061174681611f31565b93959294505050565b5f8061175a8461208d565b90505f6117668461208d565b905080602001518260200151148015611786575080604001518260400151145b95945050505050565b5f808261179d856003612e5e565b6117a79190612e4b565b9050805f036117ba57600c915050610654565b600c81111561164457600c915050610654565b5f8215806117d9575081155b156117e557505f611644565b5f6117ef8561208d565b90508381602001511480156117865750604001519091149392505050565b5f80826001148061181e5750826005145b1561182f5750600392601f92509050565b826002036118435750600692601e92509050565b826003036118575750600992601e92509050565b8260040361186b5750600c92601f92509050565b505f928392509050565b6001600160a01b0382166118a757604051630b61174360e31b81526001600160a01b0383166004820152602401610775565b6001600160a01b038381165f81815260056020908152604080832094871680845294825291829020805460ff191686151590811790915591519182527f17307eab39ab6107e8899845ad3d59bd9653f200f220920489ca2b5937696c31910160405180910390a3505050565b5f6019821161192357505f919050565b5f61192f601984612c79565b9050805f0361194757506615f4ad60b6400092915050565b61195460196103e7612c79565b811061196b575068056bc75e2d6310000092915050565b67867d5927a64f80005f61198260196103e7612c79565b61198c8385612e75565b6119969190612ea4565b90505f6119a28261217f565b9050670de0b6b3a76400006119be826615f4ad60b64000612e5e565b6119c89190612ae6565b9695505050505050565b6001600160a01b0383163b15611af357604051630a85bd0160e11b81526001600160a01b0384169063150b7a0290611a14908890889087908790600401612ed0565b6020604051808303815f875af1925050508015611a4e575060408051601f3d908101601f19168201909252611a4b91810190612f02565b60015b611ab5573d808015611a7b576040519150601f19603f3d011682016040523d82523d5f602084013e611a80565b606091505b5080515f03611aad57604051633250574960e11b81526001600160a01b0385166004820152602401610775565b805160208201fd5b6001600160e01b03198116630a85bd0160e11b14611af157604051633250574960e11b81526001600160a01b0385166004820152602401610775565b505b5050505050565b60605f611b0683612268565b60010190505f8167ffffffffffffffff811115611b2557611b2561276f565b6040519080825280601f01601f191660200182016040528015611b4f576020820181803683370190505b5090508181016020015b5f19016f181899199a1a9b1b9c1cb0b131b232b360811b600a86061a8153600a8504945084611b5957509392505050565b606061065482604051806060016040528060408152602001612f5f60409139600161233f565b8080611bc457506001600160a01b03821615155b15611c85575f611bd3846114e8565b90506001600160a01b03831615801590611bff5750826001600160a01b0316816001600160a01b031614155b8015611c125750611c108184611481565b155b15611c3b5760405163a9fbf51f60e01b81526001600160a01b0384166004820152602401610775565b8115611c835783856001600160a01b0316826001600160a01b03167f8c5be1e5ebec7d5bd14f71427d1e84f3dd0314c0f7b2291e5b200ac8c7c3b92560405160405180910390a45b505b50505f90815260046020526040902080546001600160a01b0319166001600160a01b0392909216919091179055565b611cbf8383836124ba565b610931576001600160a01b038316611ced57604051637e27328960e01b815260048101829052602401610775565b60405163177e802f60e01b81526001600160a01b038316600482015260248101829052604401610775565b611d22838361251e565b610931335f8585856119d2565b815181515f9190825b611d428284612c79565b811015611f265760015f5b83811015611dbf57868181518110611d6757611d67612f1d565b01602001516001600160f81b03191688611d818386612e4b565b81518110611d9157611d91612f1d565b01602001516001600160f81b03191614611dad575f9150611dbf565b80611db781612bfa565b915050611d4d565b508015611f13575f611dd18484612e4b565b90505b84811015611f1157603060f81b888281518110611df357611df3612f1d565b01602001516001600160f81b03191610801590611e345750603960f81b888281518110611e2257611e22612f1d565b01602001516001600160f81b03191611155b15611eff575f5b8582108015611e6e5750603060f81b898381518110611e5c57611e5c612f1d565b01602001516001600160f81b03191610155b8015611e9e5750603960f81b898381518110611e8c57611e8c612f1d565b01602001516001600160f81b03191611155b15611ef2576030898381518110611eb757611eb7612f1d565b016020015160f81c611eca83600a612e5e565b611ed49190612e4b565b611ede9190612c79565b905081611eea81612bfa565b925050611e3b565b9550610654945050505050565b80611f0981612bfa565b915050611dd4565b505b5080611f1e81612bfa565b915050611d38565b505f95945050505050565b60408051808201909152600e8082526d73656c6563746564436f6c6f727360901b602083015282515f9291835b611f688284612c79565b811015611f265760015f5b83811015611fe557858181518110611f8d57611f8d612f1d565b01602001516001600160f81b03191688611fa78386612e4b565b81518110611fb757611fb7612f1d565b01602001516001600160f81b03191614611fd3575f9150611fe5565b80611fdd81612bfa565b915050611f73565b50801561207a575f825b8581101561206e5788818151811061200957612009612f1d565b01602001516001600160f81b031916602360f81b03612030578161202c81612bfa565b9250505b88818151811061204257612042612f1d565b6020910101516001600160f81b031916605d60f81b1461206e578061206681612bfa565b915050611fef565b50979650505050505050565b508061208581612bfa565b915050611f5e565b6120ae60405180606001604052805f81526020015f81526020015f81525090565b5f6120bc6201518084612ae6565b90506107b25f5b6120cc8261257f565b6120d85761016d6120dc565b61016e5b61ffff169050808310612107576120f38184612c79565b9250816120ff81612bfa565b9250506120c3565b60015f5b600c821161215e575f61211e83866125cf565b9050808610612138576121318187612c79565b955061214b565b612143866001612e4b565b91505061215e565b508161215681612bfa565b92505061210b565b60408051606081018252948552602085019290925290830152509392505050565b5f680755bf798b4a1bf1e582126121c75760405162461bcd60e51b815260206004820152600c60248201526b657870206f766572666c6f7760a01b6044820152606401610775565b5f8212156121fc576121e06121db83612f31565b61217f565b6121f2670de0b6b3a764000080612e5e565b6106549190612ae6565b670de0b6b3a76400008060015b6014811161225f57612223670de0b6b3a764000082612e5e565b61222d8684612e5e565b6122379190612ae6565b91506122438284612e4b565b92506064821061225f578061225781612bfa565b915050612209565b50909392505050565b5f8072184f03e93ff9f4daa797ed6e38ed64bf6a1f0160401b83106122a65772184f03e93ff9f4daa797ed6e38ed64bf6a1f0160401b830492506040015b6d04ee2d6d415b85acef810000000083106122d2576d04ee2d6d415b85acef8100000000830492506020015b662386f26fc1000083106122f057662386f26fc10000830492506010015b6305f5e1008310612308576305f5e100830492506008015b612710831061231c57612710830492506004015b6064831061232e576064830492506002015b600a83106106545760010192915050565b606083515f0361235d575060408051602081019091525f8152611644565b5f8261238d576003855160046123739190612e5e565b61237e906002612e4b565b6123889190612ae6565b6123b2565b60038551600261239d9190612e4b565b6123a79190612ae6565b6123b2906004612e5e565b90505f8167ffffffffffffffff8111156123ce576123ce61276f565b6040519080825280601f01601f1916602001820160405280156123f8576020820181803683370190505b509050600185016020820187885189016020810180515f82525b8284101561246d576003840193508351603f8160121c168701518653600186019550603f81600c1c168701518653600186019550603f8160061c168701518653600186019550603f8116870151865350600185019450612412565b9052505085156124ae5760038851066001811461249157600281146124a4576124ac565b603d6001830353603d60028303536124ac565b603d60018303535b505b50909695505050505050565b5f6001600160a01b038316158015906125165750826001600160a01b0316846001600160a01b031614806124f357506124f38484611481565b8061251657505f828152600460205260409020546001600160a01b038481169116145b949350505050565b6001600160a01b03821661254757604051633250574960e11b81525f6004820152602401610775565b5f61255383835f611557565b90506001600160a01b03811615610931576040516339e3563760e11b81525f6004820152602401610775565b5f61258b600483612f4b565b1561259757505f919050565b6125a2606483612f4b565b156125af57506001919050565b6125bb61019083612f4b565b156125c757505f919050565b506001919050565b5f82600114806125df5750826003145b806125ea5750826005145b806125f55750826007145b806126005750826008145b8061260b575082600a145b80612616575082600c145b156126235750601f610654565b82600414806126325750826006145b8061263d5750826009145b80612648575082600b145b156126555750601e610654565b8260020361267e576126668261257f565b61267157601c612674565b601d5b60ff169050610654565b505f92915050565b6001600160e01b03198116811461147e575f80fd5b5f602082840312156126ab575f80fd5b813561164481612686565b5f5b838110156126d05781810151838201526020016126b8565b50505f910152565b5f81518084526126ef8160208601602086016126b6565b601f01601f19169290920160200192915050565b602081525f61164460208301846126d8565b5f60208284031215612725575f80fd5b5035919050565b80356001600160a01b0381168114612742575f80fd5b919050565b5f8060408385031215612758575f80fd5b6127618361272c565b946020939093013593505050565b634e487b7160e01b5f52604160045260245ffd5b5f67ffffffffffffffff8084111561279d5761279d61276f565b604051601f8501601f19908116603f011681019082821181831017156127c5576127c561276f565b816040528093508581528686860111156127dd575f80fd5b858560208301375f602087830101525050509392505050565b5f82601f830112612805575f80fd5b61164483833560208501612783565b5f805f60608486031215612826575f80fd5b83359250602084013567ffffffffffffffff80821115612844575f80fd5b612850878388016127f6565b93506040860135915080821115612865575f80fd5b50612872868287016127f6565b9150509250925092565b5f805f6060848603121561288e575f80fd5b6128978461272c565b92506128a56020850161272c565b9150604084013590509250925092565b5f602082840312156128c5575f80fd5b6116448261272c565b5f80604083850312156128df575f80fd5b6128e88361272c565b9150602083013567ffffffffffffffff811115612903575f80fd5b61290f858286016127f6565b9150509250929050565b608081525f61292b60808301876126d8565b6020830195909552506040810192909252606090910152919050565b5f8060408385031215612958575f80fd5b6129618361272c565b915060208301358015158114612975575f80fd5b809150509250929050565b5f805f8060808587031215612993575f80fd5b61299c8561272c565b93506129aa6020860161272c565b925060408501359150606085013567ffffffffffffffff8111156129cc575f80fd5b8501601f810187136129dc575f80fd5b6129eb87823560208401612783565b91505092959194509250565b5f60208284031215612a07575f80fd5b813567ffffffffffffffff811115612a1d575f80fd5b612516848285016127f6565b5f8060408385031215612a3a575f80fd5b612a438361272c565b9150612a516020840161272c565b90509250929050565b600181811c90821680612a6e57607f821691505b602082108103612a8c57634e487b7160e01b5f52602260045260245ffd5b50919050565b6020808252601290820152714d6574616461746120746f6f206c6172676560701b604082015260600190565b634e487b7160e01b5f52601260045260245ffd5b634e487b7160e01b5f52601160045260245ffd5b5f82612af457612af4612abe565b500490565b601f821115610931575f81815260208120601f850160051c81016020861015612b1f5750805b601f850160051c820191505b81811015611af157828155600101612b2b565b815167ffffffffffffffff811115612b5857612b5861276f565b612b6c81612b668454612a5a565b84612af9565b602080601f831160018114612b9f575f8415612b885750858301515b5f19600386901b1c1916600185901b178555611af1565b5f85815260208120601f198616915b82811015612bcd57888601518255948401946001909101908401612bae565b5085821015612bea57878501515f19600388901b60f8161c191681555b5050505050600190811b01905550565b5f60018201612c0b57612c0b612ad2565b5060010190565b60609490941b6bffffffffffffffffffffffff1916845260148401929092526034830152605482015260740190565b608081525f612c5360808301876126d8565b8281036020840152612c6581876126d8565b604084019590955250506060015292915050565b8181038181111561065457610654612ad2565b604081525f612c9e60408301856126d8565b90508260208301529392505050565b602080825260149082015273151bdad95b88191bd95cc81b9bdd08195e1a5cdd60621b604082015260600190565b737b226e616d65223a20225370617474657273202360601b815282515f906020612d0b82601486018389016126b6565b81840191507f222c20226465736372697074696f6e223a2022412066756c6c79206f6e2d636860148301527f61696e2064796e616d6963204e465420776974682074696d652d62617365642060348301527f6d75746174696f6e73222c20226d65746164617461223a2000000000000000006054830152606c5f8654612d9081612a5a565b60018281168015612da85760018114612dc157612dee565b60ff198416888701528215158302880186019450612dee565b8a5f52865f205f5b84811015612de45781548a8201890152908301908801612dc9565b5050858389010194505b5050607d60f81b83525050600101979650505050505050565b7f646174613a6170706c69636174696f6e2f6a736f6e3b6261736536342c00000081525f8251612e3e81601d8501602087016126b6565b91909101601d0192915050565b8082018082111561065457610654612ad2565b808202811582820484141761065457610654612ad2565b8082025f8212600160ff1b84141615612e9057612e90612ad2565b818105831482151761065457610654612ad2565b5f82612eb257612eb2612abe565b600160ff1b82145f1984141615612ecb57612ecb612ad2565b500590565b6001600160a01b03858116825284166020820152604081018390526080606082018190525f906119c8908301846126d8565b5f60208284031215612f12575f80fd5b815161164481612686565b634e487b7160e01b5f52603260045260245ffd5b5f600160ff1b8201612f4557612f45612ad2565b505f0390565b5f82612f5957612f59612abe565b50069056fe4142434445464748494a4b4c4d4e4f505152535455565758595a6162636465666768696a6b6c6d6e6f707172737475767778797a303132333435363738392b2fa264697066735822122097d922fff50a0a2af1471a1e7058f370ef148136a6bad423ae9cda2e623c4dad64736f6c63430008140033",
  "linkReferences": {},
  "deployedLinkReferences": {},
  "immutableReferences": {},
  "inputSourceName": "project/contracts/Spatters.sol",
  "buildInfoId": "solc-0_8_20-ab4ee993a0fccfedd4a9081f6d0a451e11146a77"
}